:08000000000001209D0907002A
:0200000270008C
:10000000000001209D0907009909070099090700D0
:10001000990907009909070099090700990907003C
:10002000990907009909070099090700990907002C
:10003000990907009909070099090700990907001C
:100040009909070055490700990907009909070010
:1000500009440700C14907006149070079490700C1
:1000600059490700D90E07009909070099090700A7
:10007000D90707009909070099090700990907009E
:1000800099090700990907009909070099090700CC
:1000900099090700990907009909070099090700BC
:1000A00099090700990907009909070099090700AC
:1000B000C54907005D4907008D3D0700C9130700CA
:1000C000054A070099090700493507009909070003
:1000D000990907009909070099090700990907007C
:1000E000990907009909070099090700990907006C
:1000F00099090700990907009909070010B5054CEF
:10010000237833B9044B13B10448AFF300800123C3
:10011000237010BD98030020000000001C6307003E
:10012000084B10B51BB108480849AFF300800848D8
:10013000036803B910BD074B002BFBD0BDE810408E
:10014000184700BF000000001C6307009C0300204C
:100150009003002000000000154B002B08BF134B3C
:100160009D46A3F5803A00218B460F461348144A5A
:10017000121A04F06AFF0F4B002B00D098470E4B69
:10018000002B00D098470020002104000D000D48EE
:10019000002802D00C48AFF3008004F01DFF2000BF
:1001A000290000F057FA04F003FF00BF0000080028
:1001B0000000012000000000000000009803002063
:1001C000601700200000000000000000704700BF22
:1001D00008B50548012101F0B5FF04480121BDE83B
:1001E000084001F0AFBF00BF0032040000350A0034
:1001F000F0B5404E404C0123736437682068616855
:10020000A268E3688DB047F4807703AD37600FC50F
:1002100003A802F099FE54F8100F384D6168A268E7
:10022000E368268A07AC0FC426806B681B035BBF9C
:10023000334B1B884FF4AD73C3F3080307A8ADF825
:10024000223002F08FFB2F4800F002FC01210A4609
:10025000022002F073F91120042102F003FA0021B8
:100260000A46032002F06AF92748012101F06AFFDB
:100270002548012101F066FF2448032102F0F2F92C
:100280002348032102F0EEF92248032102F0EAF9A3
:10029000214B596818681D7A07AB03C3002401225B
:1002A00007A88DF81C201D708DF81D408DF81E408C
:1002B0008DF81F408DF821408DF820408DF82240A8
:1002C0008DF8234002F0EAFF0CA800F82C4D02F054
:1002D0009FFC022302A88DF809308DF8084002F037
:1002E000A1FC0E4A136823F4E06343F40073136027
:1002F0000DB0F0BD00000E4038600700B081E00F87
:10030000B881E00F00F0490200250A0002001E003B
:1003100003002000050024005C60070000500E4030
:1003200008B501210A46032002F008F91120052131
:10033000BDE8084002F096B90144884270B44FF01D
:10034000FF3311D010F8015B082485EA0302D207BD
:100350004FEA53064ABF064B5B087340013C4FEA25
:100360005505F2D18842EDD1184670BC704700BFE8
:100370002083B8ED38B50C4C2368C3F30A02054658
:1003800052B1184629464FF4806205F045FE40B24E
:10039000003018BF012038BD184605F045FE002882
:1003A000F5D12368EDE700BFEC0E002070B51346D1
:1003B00082B00C4642B3861805464FF6FF7115F819
:1003C000012B82EA112282EA121242EA012192B240
:1003D00081EA023181EA4212B54291B2EFD10A0AB2
:1003E000C9B2C2540A4A717016680A4A00920025BE
:1003F0000146224602333046019501F005FE401BBE
:1004000018BF012002B070BDFF210A460646E8E78A
:1004100004000020190407002DE9F0417A4C2378EC
:100420005A1F012A40F28280FE2B40F2024740F21E
:10043000014605BF042702204FF480600326734B5A
:1004400001301D4618441A464FF6FF7112F8013B61
:1004500083EA112383EA131343EA01219BB281EA61
:10046000033181EA4311824289B2EFD1AA5DEB5D8B
:1004700043EA02228A4204D0654804F089FEFF2341
:1004800023702A7822B1A2F10903DBB2F32B0DD835
:10049000FF2323709A4215D0FF2323705D485B49E8
:1004A00003700322BDE8F041FFF780BF062A38D071
:1004B000082A5549237821D1072BEBD113469A42BC
:1004C0000A70E9D1062B35D066D9082B43D03ED22D
:1004D000514D2B68B3F5E02FC0F08280FF232370CD
:1004E0000020042103460A4602F0A6FD04210A4624
:1004F00000200123BDE8F04102F09EBD052AC9D1CC
:10050000062BC7D1434D41493F4E062328460322BF
:100510002B702370FFF74AFFD8B1FF233370BDE87B
:10052000F08123783849FE2BB4D1C7E70427022095
:10053000032684E7374D35490723284640F2014218
:100540002B702370FFF732FF0028C7D1C8E7FD2BBF
:10055000A4D2BDE8F081304E30483168A1F5006189
:1005600004F016FE31684FF40060A1F50061FFF75A
:10057000E3FEA9786B782A79ED78090441EA0363F0
:10058000134343EA052398420CD0254804F090FE1B
:10059000FD232370BDE8F081002BDAD0042B7FF619
:1005A0007BAFAFE74FF07E6005F03EFD30B1FD233D
:1005B00023701C48BDE8F04104F07ABE4FF07E6025
:1005C0001949042205F028FD0028F0D102F03EFE72
:1005D000164804F06DFE164B01221A60BDE8F0814A
:1005E00014480C4EFFF7C6FE2B68134903F58063D1
:1005F0000727304640F201422B603770FFF7D6FEE6
:1006000000287FF46BAF6BE7F00E0020F40E0020A3
:1006100084600700E8060020EC0E0020A4600700BC
:10062000D0600700E46007000000002004610700BC
:10063000E0060020F50E0020F40E002008B5FFF7BC
:100640006FFE4FF400631C68A54603F104031B68AA
:100650001847FEE770B588B06FF002032E4C009388
:10066000FFF7C6FD2D4804F023FE21682C4804F056
:100670008FFD236801333BD0FFF7AAFD294D2A4E99
:10068000FFF7A4FD04210A460020012302F0D4FC58
:100690000FCD01AC0FC495E8070084E8070001A95D
:1006A000306801F045FB02F0C1FD4FF07E621F4B48
:1006B00012681F484FF400619A42016013D01D4C2C
:1006C0001D4D1E49FE232046032223702B70FFF789
:1006D0006DFE28B91A4A1368002BFCD0FFF7AEFF55
:1006E000FF232B70F6E7174804F052FDFFF7A6FF33
:1006F000154804F0DDFD20466946042205F08CFC17
:1007000028B9054B1148196804F042FDB4E71048B8
:1007100004F0CEFDF5E700BFE841E00F20610700DF
:10072000486107006860070004000020584C4E45EF
:10073000EC0E0020E8060020F00E0020F40E002051
:10074000E0060020DC6107006C610700A86107007B
:100750008461070000207047FEE700BF4FF400539C
:100760004B600020704700BF012070470020704799
:1007700070B5164682B10D46002404E00134A6424D
:1007800005F8010B06D000F0AFF8431CF6D11CB100
:10079000204670BD304670BD4FF0FF3070BD00BFC9
:1007A000044A05491368002B08BF0B461844106023
:1007B00018467047B40300206017002070B5161E5D
:1007C00007DD0C468D1914F8010B00F0C1F8AC429E
:1007D000F9D1304670BD00BF104803691B0609D52A
:1007E00070B50F4C2368072B05DDC36C23F00403A1
:1007F000C36470BD70470B4D2E6802F079FE0A4B42
:1008000098552B6801332B602368013323602B68D4
:10081000082BEED100232B6070BD00BF000001400B
:10082000D0030020C8030020BC03002070B5264878
:10083000264D274E88B0012101F084FC2548012176
:1008400001F080FC002001460422012302F0F4FBA9
:1008500001210B460020022202F0EEFB0FCD01AC7D
:100860000FC495E8070084E807001B48012101F048
:1008700069FC08A9002401F81C4D304602F0BEFDB9
:1008800003237367B36F154A23F4F85304204FF41E
:10089000805123F01F03B367B064C2F88011F36C7A
:1008A0000343F36430461160052102F073FD0C4BE5
:1008B0001B68214698680222234604F011FD094B6B
:1008C00001221A7008B070BD404105000C6207009B
:1008D0000000014000350A000032040000E100E0A1
:1008E000A0000020C4030020144B1B7810B5F3B106
:1008F00002F07EF8124A1368002B1BDD114B124CDC
:100900001968645C1968013119601968082904BF05
:100910000021196013680D49013B1360CB6C43F053
:100920000403E4B2CB6402F067F8204610BDFFF781
:100930007DFFDDE74FF0FF34F5E700BFC403002083
:10094000D0030020CC030020BC03002000000140A5
:100950000E4B1B7810B5044653B10D4B1B780BB1F1
:100960000A2C08D00B48214602F0C8FD204610BDD5
:10097000FFF75CFFF1E707480D2102F0BFFD0548D6
:10098000214602F0BBFD204610BD00BFC40300207D
:10099000B803002000000140FEE700BF08B500F0EA
:1009A00067F8064B0648834206D2064A52F8041BF3
:1009B00043F8041B9842F9D8FFF7CEFB0000002053
:1009C00094030020286307000048704700F04902A4
:1009D0000F4BD3F8943003F00703032B14D0042BF0
:1009E0000FD0022B0AD00B4B1868094BD3F80031FB
:1009F000C3F304230133B0FBF3F07047064B1868D0
:100A0000F3E7064B1868F0E74FF40040EDE700BF4E
:100A100000400E40140000200C00002008000020C0
:100A200008B5FFF7D5FF054B054AD3F80831C3F3E6
:100A300008230133B0FBF3F0106008BD00400E4006
:100A400010000020014B1868704700BF0C00002008
:100A5000054A064B1060D3F8943003F00703022BCD
:100A600000D07047FFF7DCBF0C00002000400E40B4
:100A7000044B054A9A60D3F8882042F47002C3F808
:100A80008820704700ED00E0000007004FF40040B0
:100A9000704700BF4FF47A70704700BF014B186871
:100AA000704700BF080000202DE9F0476A4C84B071
:100AB00024789DF83CC09DF844E01CB9674804B018
:100AC000BDE8F087072A154603D9654804B0BDE89C
:100AD000F0870C9A002AF8D00D9A002AF5D0109AC7
:100AE000B2F5006FF1DC012806460F4666D0DFF84C
:100AF0007C914FEA051809EB0802127B0AB95948A4
:100B0000DDE759480022690144188DF804208DF86A
:100B100005208DF806208DF807208DF808208DF827
:100B200009208DF80A208DF80B208DF80C208DF807
:100B30000D20002F46D104F108024750676042F8AB
:100B4000047B176094F802A0E2784AF0100A42F0A1
:100B5000300284F802A0E270BCF1000F03D1D2B2DF
:100B600042F00302E2700093109B425A013B63F390
:100B70000E12425200EB010C0C999CF80330CCF899
:100B800008106EF383030D99CCF80410012E8CF835
:100B9000033031D0129B002B55D009EB08032846B7
:100BA000129D49F808502246139D5D600024694655
:100BB0005E739C6002F0AEFA204680E70E9A002A2F
:100BC00095D182E704F1080A425062604AF8042B8A
:100BD000CAF8002094F802A0E2784AF0100A42F025
:100BE000030284F802A0E270BCF1000FBBD1D2B2C4
:100BF00042F03002E270B6E79CF80C3043F0030399
:100C00008CF80C30DCF80C30042161F39F03CCF835
:100C10000C309CE80F000CF1100E8EE80F00DCF891
:100C20001C200E9B6FF0030161F39F02012FCCF893
:100C30001C20CEF80430B0D10D9BCCF818300E9BA0
:100C4000CCF80430A9E7002EA7D19CF8023066F357
:100C500004138CF80230A0E754040020028000F056
:100C6000018000F0078000F058040020D403002029
:100C7000114B1B780BB91148704780B170B5054610
:100C800001F0B6FE0E4900220B461C7B103344B126
:100C90000132082AF9D101F0AFFE0A4870BD0A48B6
:100CA00070471301CE182A600122CC50327301F034
:100CB000A3FE204670BD00BF54040020028000F057
:100CC000D4030020048000F0018000F010B5134A26
:100CD00082B00023106801908DF8043001F088FE86
:100CE0000F4B1C7824B101F087FE0E4802B010BDF6
:100CF00001221A7001F080FE0B4B224603F18001A5
:100D00001A7310338B42FBD104230DEB03008DF8D3
:100D1000073002F0D3F9002002B010BD28620700AE
:100D200054040020038000F0D4030020F0B589B003
:100D300084469DF838400F9F9DF84060119D0193B7
:100D400000200B4612990092079162460394049783
:100D50000596069502900146FFF7A6FE09B0F0BD84
:100D6000F0B589B084469DF838400F9F9DF84060EB
:100D7000119D019300200B46129900920791624643
:100D8000039404970596069502900121FFF78CFEC7
:100D900009B0F0BD08B50A4B1B780BB9094808BD6E
:100DA000072801D9084808BD084B03EB0012137B44
:100DB0000BB9074808BD02F001FA002008BD00BFCA
:100DC00054040020028000F0018000F0D4030020D1
:100DD000078000F0104B1B780BB9104870470728AC
:100DE00001D90F4870470029FBD00E4B03EB0013CD
:100DF0001B7B0BB90C4870470C4B10B41A6A0124CA
:100E000004FA00F313EA02001ABF0C700020087005
:100E10005DF8044B704700BF54040020028000F0CE
:100E2000018000F0D4030020078000F000200E4075
:100E3000104B1B780BB910487047072801D90F4891
:100E400070470029FBD00E4B03EB00131B7B0BB943
:100E50000C4870470C4B10B41A6E012404FA00F3CE
:100E600013EA02001ABF0C70002008705DF8044BF2
:100E7000704700BF54040020028000F0018000F0A1
:100E8000D4030020078000F000200E400D4B1B789B
:100E900013B90D4B18467047072802D90B4B18465B
:100EA00070470029FAD00A4B03EB0012137B0BB9F1
:100EB000084BEFE710B50C4602F096F900232060CE
:100EC000184610BD54040020028000F0018000F09C
:100ED000D4030020078000F02DE9F8431A4B1A6E66
:100EE000D96E11EA02081DD4184C194F99460126F3
:100EF000002516EA080F0CD02368C9F86860284658
:100F00003BB1A16862680131A1609847637B012B06
:100F100009D00135082D4FEA460604F11004E8D146
:100F2000BDE8F883FEE707EB451303F10802183329
:100F30000028EED1117960F3410111711A7960F343
:100F400041021A71E5E700BF00200E40D4030020E3
:100F5000580400202DE9F84F2C4C4FF0000A04F102
:100F6000A005064600274FF0010B237984F805A061
:100F700053B154E906018F4208BF864209D2801B53
:100F800061EB070144E906012834AC42EDD1BDE82C
:100F9000F88FE37933B923712368002BF4D084F8F8
:100FA00005B0F1E754E90489301A67EB01014246C4
:100FB0004B4603F02FFD54F8081CB8EB020869EB10
:100FC0000309002944E9068954F8043C0EDD0B446A
:100FD0001D2B44F8043CDFD918F1010849F1000940
:100FE0001E3B44E9068944F8043CD5E75B1A1D2BF7
:100FF00044F8043CD0D918F1FF3849F1FF391E3BC1
:1010000044E9068944F8043CC6E700BF780500209F
:1010100038B5074C0025637F2BB90135042D04F149
:101020002804F8D138BDA369216A28469847F4E717
:10103000600500201A4BF0B403F1A0014FF0FF341B
:101040004FF0FF351A7F3AB1D3E90067AF4208BFCE
:10105000A6423CBF34463D4628338B42F2D1114A6A
:10106000002313706B1C08BFB4F1FF3F16D00E496C
:101070000E4B086000276FF06406AF424FF004018A
:1010800008BFA642196238BF3446084B04445C6569
:10109000012111705A6A42F004025A62F0BC704792
:1010A00060050020580500200406002000200440B0
:1010B000124B1B780BB91248704770B5114C05469E
:1010C00001F096FC002221468B7F28313BB1013292
:1010D000042AF9D10C4C01F08FFC204670BD5DB1A3
:1010E00002EB820104EBC10101261C468E772A60C7
:1010F00001F082FC204670BD044CECE7590500204D
:10110000061000F060050020011000F0041000F04F
:10111000F8B51D4D2C78002C33D11C481C4E1D4FAA
:10112000012101F00FF81C48032101F09BFA012175
:101130001A48347101F006F83046194E02F0AEF844
:101140000120184902F08CF8736A174823F4FF63F2
:1011500023F007034FF0004E40F2FF727362214606
:101160003262B460A022C7F880E1C7F800E003F063
:101170006CFF0E4B0E490F4A1C7001230C7014605B
:101180002B700020F8BD00BF5905002000250A0083
:101190001800002000E100E005002400A009140070
:1011A0000020044024000020600500205A05002093
:1011B00058050020000600202DE9F04F634C2478EC
:1011C00083B01CB9624803B0BDE8F08F0328054620
:1011D00003D9604803B0BDE8F08F4FEA8009DFF81B
:1011E00090A109EB05040AEBC4041F468846164685
:1011F00001F0FEFBA37F83464BB166B917B12846C9
:101200000C99B847584601F0F7FB0020DBE701F0E6
:10121000F3FB5148D7E7DFF854E14FF400434FF4B4
:10122000FA700021DEF808C0A761E3FB06014FF465
:101230007A720023CDF804C003F0ECFBB8F1010F83
:10124000C4E90201DDF804C073D009EB05030AEB21
:10125000C30301300C9C414A1C6241F10001E3E8E8
:101260000601127883F8078001241C71002AC9D175
:101270003B4C2368013302D0236801332360394E8D
:101280003378F3B9384B394DC3F800C000238B4293
:101290006FF0640208BF8242344B38BF1046042707
:1012A00060442F6258655A6A012142F004025A6272
:1012B000317022682A4B002AA4D01A68013A1A60B9
:1012C000A0E72368012BF4D1274F09EB05030AEBB4
:1012D000C30338684FF00008282283F81C80C0EB55
:1012E0000C0002FB05A510E0FFF7A4FE1F4B3868B9
:1012F000D3F808C032785B6D08F101081B1AC0EB07
:101300000C00002AD5D09842D3D3184ACDF804C097
:10131000536A23F004035362FFF71CFEFFF778FEC5
:10132000DDF804C06046B8F1000FDDD101232B7752
:10133000DAE74FF47A7303FB06F6C0EB0013A6EB73
:1013400043030F22236162617FE700BF590500203C
:10135000061000F0021000F0031000F05A05002003
:10136000000600205805002004060020002004404C
:10137000600500200F4B1B780BB90F4870470328FE
:1013800001D90E48704710B5044601F031FB0C4BF3
:1013900004EB840403EBC40404F118039A791AB92A
:1013A00001F02AFB074810BD00241C7101F024FB4A
:1013B000204610BD59050020061000F0021000F074
:1013C00060050020031000F02DE9F8431B4C01F0EC
:1013D0000FFB636AA269134023F005025B0707460F
:1013E000226226D5164DDFF860802A68D4F808906E
:1013F000144E012388F80030C2EB090001E0984246
:1014000014D3636A23F004036362FFF7A3FDFFF7BD
:10141000FFFD4846FFF70EFED4F808902A68636D7A
:101420003178C2EB09009B1A0029E8D1002388F823
:1014300000303846BDE8F84301F0DEBA0020044031
:1014400004060020580500205A050020D14A0368F0
:10145000934208D0D04A934205D0D04A934200F03C
:101460000882CF4870470379052B13D99A1F042AA5
:1014700040F2F082A3F10B02052A40F21D83A3F192
:101480001102062A40F23483183B072B94BF052330
:10149000FF2300E000230B704379042B17D95A1F58
:1014A000042A40F2A382A3F10A02052A40F2F6823E
:1014B000A3F11002062A40F21F83A3F11702072AA4
:1014C00040F240831F2B14BFFF23002300E00023C2
:1014D0008B708379032B19D91A1F042A40F2848256
:1014E000A3F10902052A40F2CB82A3F10F02062ADA
:1014F00040F2F682A3F11602072A40F235831E2B32
:1015000004D01F2B14BFFF23002300E000230B7126
:10151000C379022B1BD9DA1E042A40F28582A3F17B
:101520000802052A40F26482A3F10E02062A40F264
:10153000D582A3F11502072A40F20C83A3F11D0204
:10154000012A04D91F2B14BFFF23002300E000232E
:101550008B710379002B58D0012B56D0022B54D01D
:10156000032B52D0042B50D0052B4ED0062B00F06D
:101570006B82072B00F07482082B00F07982092B14
:1015800000F080820A2B00F08B820B2B00F08C8203
:101590000C2B00F095820D2B00F09C820E2B00F09E
:1015A00097820F2B00F09882102B00F04D82112BA8
:1015B00000F08E82122B00F08F82132B00F04482F9
:1015C000142B00F04D82152B00F05282162B00F0E8
:1015D0005982172B00F06482182B00F0BF82192B60
:1015E00000F0BA821A2B00F0C9821B2B00F0C482D3
:1015F0001C2B00F0BF821D2B00F0BA821E2B00F0C6
:1016000053821F2B0CBF0723FF234B704379002B02
:101610005DD0012B00F0F081022B00F00182032B42
:1016200000F00482042B00F0DD81052B00F0048221
:10163000062B00F00B82072B00F01482082B00F021
:101640001982092B00F020820A2B00F025820B2B37
:1016500000F030820C2B00F031820D2B00F0348230
:101660000E2B00F033820F2B00F0E681102B00F0E0
:101670002B82112B00F02A82122B00F0DD81132B1C
:1016800000F0E481142B00F0ED81152B00F0F281C5
:10169000162B00F0F981172B00F05282182B16D070
:1016A000192B00F0A9811A2B00F0BA811B2B00F036
:1016B000BD811C2B00F096811D2B00F0ED811E2BAF
:1016C00000F0F8811F2B14BFFF23002300E001234B
:1016D000CB708379002B65D0012B00F08F81022B1A
:1016E00000F09C81032B00F0A381042B00F0788193
:1016F000052B00F0A381062B00F0AA81072B00F038
:10170000AD81082B00F0B281092B00F0B7810A2BC4
:1017100000F0C0810B2B00F0CB810C2B00F0C681B8
:101720000D2B00F0CF810E2B00F05A810F2B00F013
:10173000BD81102B00F0C681112B00F05181122BBE
:1017400000F07C81132B00F08381142B00F0868144
:10175000152B00F08B81162B00F0FA81172B00F06F
:10176000F381182B1ED0192B00F048811A2B00F0A2
:1017700055811B2B00F05C811C2B00F07F811D2B01
:1017800000F088811E2B00F0E3811F2B0CBF01238A
:10179000FF2308E000000140000401400008014070
:1017A000022000F002234B71C379002B5DD0012B86
:1017B00000F02081022B00F02381032B00F0328106
:1017C000042B00F00B81052B00F03481062B00F078
:1017D0003781072B00F04081082B00F04581092B51
:1017E00000F04A810A2B00F053810B2B00F04E8150
:1017F0000C2B00F057810D2B00F014810E2B00F004
:1018000045810F2B00F04E81102B00F00B81112B26
:1018100000F0E480122B00F00D81132B00F01081FA
:10182000142B00F01981152B00F05C81162B00F0B1
:101830006581172B00F09A81182B16D0192B00F018
:10184000D9801A2B00F0DC801B2B00F00D811C2BA3
:1018500000F012811D2B00F045811E2B00F04E81FF
:101860001F2B0CBF0223FF2300E00323CB710020BA
:101870007047037923B10E3B062B94BF0523FF234A
:101880000B7043790C2B00F29A80FF238B708379C5
:101890000B2B40F2C180A3F10C02062A40F22681F4
:1018A000A3F11302092A40F2B7801E2B14BFFF23B5
:1018B00000230B71C3790A2B40F2AC80A3F10B0219
:1018C000062A40F21181A3F11202092A40F2A280F5
:1018D0001D2B14BFFF2300238B710379002B00F015
:1018E00097805A1E0C2A40F2AD800E2B00F020810A
:1018F0000F2B00F01B81102B00F01481112B00F036
:101900000F81122B00F08480132B00F02B81142BFD
:101910000CBF0723FF234B7043790C2B76D90D2B7B
:1019200000F0F2800E2B00F0F1800F2B00F0F6801B
:10193000102B00F0F180112B00F0F680122B00F03C
:10194000FD80132B00F00C811F2B0CBF0523FF2300
:10195000CB7083790B2B57D90C2B00F0D3800D2B38
:1019600000F0CE800E2B00F0D5800F2B00F0D08041
:10197000102B00F0E180112B00F0DC80122B00F026
:10198000E5801E2B0CBF0523FF234B71C3790A2B67
:1019900038D90B2B00F0A6800C2B00F0AF800D2B5C
:1019A0003FF463AF0E2B25D00F2B29D0102B5BD02B
:1019B000112B61D01D2B0CBF0523FF2356E7A3F18C
:1019C0000D02062A40F29680A3F11402092A7FF63E
:1019D0005CAF1F2B14BFFF23002357E70C2345E701
:1019E0000B23E0E6052373E6012390E501236FE571
:1019F0000223ADE5042339E7022369E60323D2E697
:101A0000052333E7FF2331E7FF23BEE7FF239FE7EB
:101A1000052380E7FF235FE7FF234AE70423C2E6AD
:101A2000032355E60B2321E7012391E504234FE629
:101A30000523B8E60D2319E70B2349E60C23B2E68C
:101A40000E2313E7FF2366E70B23DEE50C233FE6B7
:101A50000D23A8E601231EE50F2307E70E23A2E6C8
:101A60000C23D2E50D2333E60623FFE60F239AE687
:101A70000D23CAE50E232BE60723F7E6062392E69D
:101A8000022344E50E23C0E50F2321E60923EDE6FA
:101A90000823EBE6072386E6062319E6022317E56B
:101AA0000F23B2E50A23E1E60623AEE509237AE631
:101AB000082378E607230BE60223ECE4082307E675
:101AC0000723A2E50A236EE6092301E60A23FFE5C0
:101AD00009239AE5082398E50A2396E5032337E5C9
:101AE000032314E50023C1E60523F5E60523E0E61C
:101AF0000323D0E40523C9E60323E9E40123B5E683
:101B0000012342E7002340E7002321E701231FE7E9
:101B100004233AE7032338E7042319E7032317E7ED
:101B20000423F8E60323F6E6052311E70123F2E692
:101B30000023F0E6062328E7052326E7062307E728
:101B40000023C5E50523C3E401232CE607231CE796
:101B5000002328E60523FBE4012356E5002354E592
:101B60000723F5E60623D6E60523D0E402237DE627
:101B700005234AE5042348E5032346E5022344E51B
:101B800090F83C100A4A036C01EB4101C9010A4478
:101B90001A44920002E090F8483013B11368002B09
:101BA000F9D090F848300BB9406C7047002070476E
:101BB000E000851038B5144600F01AFF227D00239E
:101BC000012A0546636484F84830A3630AD0E36AB7
:101BD0001BB12046626B00219847284600F00CFF9D
:101BE000012038BD606DFFF7C5FBF0E72DE9F0433C
:101BF000044687B0E5680068984600260E9BC4F846
:101C000034804FF44067082D84F850608946C760DF
:101C1000E36207D9092D27D000F1240300F13C0528
:101C2000012603E000F11C0300F13405DFF844E075
:101C3000A16A206A04940127CDF80CE0CDF8048055
:101C400002960097FFF78CF8616AE069009700241C
:101C5000CDF8048002962A464B4603940494FFF77D
:101C600065F807B0BDE8F083012600F1180300F124
:101C70003005DBE7B51B070091F84830012B00D099
:101C8000704710B582B0086A0C460DF10601FFF7E7
:101C9000A1F89DF80630C3B1206AFFF77BF8E06930
:101CA000FFF778F8206A04F13801FFF7EFF8E36AEC
:101CB0000C496164002284F8482023B1606BA26B58
:101CC000821A2046984702B010BDE0690DF1070165
:101CD000FFF7AEF89DF80730002BF4D1636BA363D8
:101CE000E5E700BF052000F018B101B11AB90D48B1
:101CF00070470D487047B2F5006FF8DC38B5044600
:101D000000F076FE94F8483003F0FF051BB100F0B8
:101D100073FE064838BD012384F8483000F06CFE9D
:101D2000284638BD022000F0012000F0032000F01A
:101D3000F0B5A44D06460F460FCD89B002AC0FC4D6
:101D400095E8030084E80300A6B187B15822304625
:101D5000002103F07AF93B689B4A93420DD09B4ADD
:101D6000934200F0B6809A4A934200F0BA809948B4
:101D700009B0F0BD984809B0F0BD984B984AF3649B
:101D80004FF440237262B3623D460FCD34460FC418
:101D900095E8070084E807007B7D012B08BF8DF8DC
:101DA0001630BB7D4BB1012B00F0A380022B00F05D
:101DB000A580032BDBD14FF44073ADF818303B7D89
:101DC0008848012B05BF00224FF47A73BB688DF859
:101DD00015200121049300F0B5F98348012100F09A
:101DE000B1F9F06C012100F0ADF9FB681A1F0C2A63
:101DF000BDD8033B38688DF8143002A901F034FBDC
:101E00007B69386823F47F0323F47F431BB903689D
:101E100043F480330360FB7D002B74D1816F7A79AA
:101E20003D79BB79FC7901F0E0310A4342EA0522B1
:101E300042EA036343EA04430F2283674267304662
:101E40006946FFF703FB0446002891D1357D9DF8D4
:101E500006209DF80730F26333649DF800009DF87A
:101E60000110002D60D104222B4601F0E5F82B462D
:101E70009DF802009DF80310012201F0DDF8B37D0A
:101E8000012B40F286809DF804009DF80510042285
:101E9000012301F0D1F8F37D002B72D000F0A8FDF2
:101EA000524B1A78002A61D101221A7000F0A4FD69
:101EB000FFF72EF93B7D012B5BD0FEF707FF0021DA
:101EC00006F11C00FEF7D4FE0146002873D04848F6
:101ED0004EE7484B484AF3644FF450237262B362B2
:101EE00052E7464B464AF3644FF460237262B36292
:101EF0004AE74FF40073ADF8183060E74FF4807391
:101F0000ADF818305BE7826F7D793C79B97922F0C2
:101F10001F2323F01F032B4343EA042343EA0163F7
:101F20000B22836742678AE70122234601F084F887
:101F300023469DF802009DF80310042201F07CF86E
:101F4000B37D012B2ED99DF804009DF805100222C7
:101F5000012301F071F8F37D002B9FD196F83C002E
:101F6000316C0222012301F067F897E700F044FD8D
:101F7000A0E706F15400FFF79BF800289DD0214808
:101F8000F6E696F83C00316C0422012301F054F887
:101F900084E72B469DF804009DF80510042201F00B
:101FA0004BF878E723469DF804009DF805100222BF
:101FB00001F042F8CFE706F12000FEF759FE0028B5
:101FC00085D1D5E62C6207000000014000040140E5
:101FD00000080140022000F0012000F0003204005F
:101FE00001000C004041050000350A0008060020F1
:101FF000092000F00042040001000D00005204001E
:1020000001000E00042000F0F0B5057D83B0044609
:1020100015B9164803B0F0BD15461A460E461F46C0
:10202000FFF762FE0028F5D175B1099B73B9237ED5
:10203000012B14D0089B0093204631462A463B468C
:10204000FFF7D4FD0020E5E70948E3E7636D099A4F
:10205000009401461846074BFFF7AEF8E7E7204625
:10206000FFF78EFD0028E5D0D4E700BF082000F080
:10207000022000F0791C0700F0B4114B114D5B6891
:10208000C9B22A46002314798C4202F108020CD00E
:102090000133052BF7D14FF04071094A536823F003
:1020A00040730B435360F0BC704755F83340054F05
:1020B00084424FEAC306EBD33E4473791906ECE73A
:1020C00000000E405862070038B5074C41F67133E6
:1020D000256C2364FEF778FC0021FFF7CDFF0DB1DE
:1020E0000023236438BD00BF00000E400C4A0D4B96
:1020F000D2F89010516A21F0300141F0100110B473
:102100005162146BC0F3C311033123400F2928BF60
:102110000F21034343EA017313635DF8044B7047D7
:1021200000400E4000F8FF0F38B5054C41F6713302
:10213000256C2364FFF7A0FF0DB10023236438BD95
:1021400000000E40C0F30323013B30B4092B13D829
:10215000DFE803F0251D121221272A120523144D52
:102160004FF48034134AD2F84431DB07C0F3043013
:1021700004D528448000016030BC7047D2F840315B
:102180001C42F6D0D2F840311C42F7D1F1E70A4D9B
:10219000C0F30430EDE7094DFAE7094DF8E7094DC2
:1021A000F6E7094D0124DDE7084D1024DAE700BF0A
:1021B0008007F21000400E400006F2108005F21079
:1021C000800AF2100000F2100007F2104007F2102F
:1021D00000F00F000138072847D8DFE800F0121D93
:1021E0003346283E4604264BD3F85C3103F03003D7
:1021F000202B40D0302B40D0102B0CBF07200120CB
:1022000070471F4BD3F8943003F00703023B052BB4
:102210002FD81C4AD05C7047194BD3F8803003F09C
:102220000703013B032B22D8174AD05C7047144B9D
:10223000D3F8883003F00703013B032B17D8134A68
:10224000D05C70470E4BD3F8843003F00703013B9A
:10225000032B0CD80E4AD05C7047094B1B6F13F050
:10226000010F14BF0920072070470020704701208C
:10227000704705207047042070470820704700BF52
:1022800000400E40446207004C62070054620700A1
:102290005062070010B50446FFF79AFF1E4B9C42A0
:1022A0002FD01E4B9C4226D01D4B9C421DD0013886
:1022B000032803D8DFE800F01511042B002010BD1F
:1022C000FEF7AEFB174BD3F80021C2F300620132D8
:1022D00001239340B0FBF3F010BDBDE81040FEF7C2
:1022E000DDBBBDE81040FEF7D1BB0E4BD3F880003C
:1022F00000F00700DBE70B4BD3F8880000F0070085
:10230000D5E7084BD3F8840000F00700CFE7BDE81D
:102310001040FEF7BFBB00BF0300200005002400F3
:1023200002001E0000400E4000F47810B0F5A01F1F
:1023300008B500F098801BD9B0F5001F33D054D9F0
:10234000B0F5381F34D066D9B0F5401F6BD0B0F56A
:10235000481F1AD15B48FFF73BFF072842D00828E7
:1023600000F0A580042810D1BDE80840FEF76ABB44
:10237000B0F5202F13D00AD9B0F5602F2DD0B0F5CD
:10238000801F2FD0B0F5402F1CD0002008BDB0F525
:10239000003F7DD0B0F5802F6FD00028F5D1BDE88B
:1023A0000840FEF715BB4848BDE80840FFF772BF7C
:1023B0004648FFF76FFF464BD3F82031C3F30113B4
:1023C000D84008BDFEF704FB414BD3F81431C3F3EA
:1023D00004230133B0FBF3F008BD3E48FFF7F8FEDD
:1023E000072860D13C4B186808BDB0F5D01F2DD030
:1023F000B0F5F01F25D0B0F5B01FC6D13348FFF7B8
:1024000049FF334BD3F82021012302F00F02934000
:10241000B0FBF3F008BDB0F5101FB6D12F48BDE8F2
:102420000840FFF737BF2848FFF734FF284BD3F8A1
:102430002821C2F30122043201239340B0FBF3F0C0
:1024400008BD2248BDE80840FFF724BF1E48FFF73B
:1024500021FF1F4BD3F828210123C2F3011293401F
:10246000B0FBF3F008BD1D48FFF714FF184BD3F87D
:10247000303103F00303D84008BDFEF7A9FA144B2E
:10248000D3F80C31C3F308230133B0FBF3F008BDDC
:10249000FEF79EFA0E4BD3F80831C3F3082301333D
:1024A000B0FBF3F008BD09287FF46FAF77E7FEF7C4
:1024B0008FFA074BD3F80031C3F3042303FB00006A
:1024C00008BD00BFB80032000300200002001E005B
:1024D00000400E4006000E002C00002005002400E5
:1024E000144B5B6A13F0300F10B408D020291DD0B4
:1024F00030294FF4800404D019B10F4A03E04FF49F
:1025000080044FF440020B49D1F890300948134041
:102510009342F9D134B1D0F8A0005DF8044BC0F378
:102520008020704701205DF8044B704700244FF471
:102530000002E8E700400E40FFF3E17FF8B5042811
:102540002AD8DFE800F0484F03542A0000292DD193
:102550000420082303253F490B66D1F89030184228
:10256000FBD1CAB101223B49AA40D1F890301A42AE
:10257000FBD1F8BD3849214489000027354B1E6640
:102580000B68002BFCD03AB1334C2C44A4002368D8
:10259000002BFCD002282FD0F8BD202310260424C5
:1025A00005250029E6D10120A040D4E7294B596A2E
:1025B00011F0300F3AD12949C96B596AC90744D57E
:1025C0005C6A274924F0300444F010045C6204265D
:1025D00003250127D2E74FF400734FF480760824D7
:1025E0000925DEE78023402606240725D9E70126B2
:1025F000354602230024D4E7002FCDD0154A536A74
:1026000013F0010117D1FFF76BFF124DD5F89C7045
:10261000022000210122FFF791FFC7F30A00FFF714
:1026200065FD2E662368002BFCD0F8BD0C490426FE
:1026300003250027A2E720234FF48061C2F8A810E9
:1026400019465366FFF74CFFDFE7054904260325CB
:10265000012793E700400E408004F21000300E4046
:102660000812C8431128F8B50C460FD000F00F002F
:102670000138072809D8DFE810F036016900670043
:1026800008004C00430008002D00F8BD042900F0AC
:102690002381052900F086800025023C0A2CF4D80D
:1026A00001A353F824F000BF43280700BD2707000B
:1026B00049280700632807008B2607008B260700A0
:1026C0008B2607008B2607008B2607007B28070038
:1026D000C72807004C1E072CD7D801A353F824F0B5
:1026E000932807008B2607008B260700A7280700E2
:1026F0008B2607008B260700B9280700B52807009E
:10270000072900F0E580092957D1884B01221A6773
:10271000F8BD874D013C092CB7D801A353F824F02C
:102720005127070057270700972707008B26070028
:102730008B260700692707008B2607008B260700DA
:102740008B260700652707007A4DE3E77A4DE1E71E
:1027500000232B60F8BD01210A460020FFF7EEFEA2
:102760000223F6E70423F4E7FEF75AF9734B984285
:1027700000F2868000200146714B6C4A1960D2F845
:102780000031704923F0807303430120C2F8003107
:1027900003230860DDE7012001460246FFF7CEFE75
:1027A0000123D6E7684A694B15689D427FF674AFEE
:1027B0002846002100F004FA6FE7F8BD0120032449
:1027C00001210A46FFF7BAFEFFF77EFC1DB1604A01
:1027D0001368002BFCD1554B5E485C67FFF7A4FDE6
:1027E000564B984271D95C4B0121984294BF4FF0EF
:1027F00080704FF00070524B4C4A1960D2F8003193
:1028000023F080731843C2F80001FEF709F9504B1A
:102810001C68002CFCD1514B514E5968376C41F665
:102820007133C1F301413364FFF726FC07B134640F
:10283000002D7FF42AAF28460121BDE8F84000F0C2
:10284000BFB900200424BBE73D4B384A0121196081
:10285000D2F80031022043F08073C2F80031044600
:10286000AEE7374B314A01241C60D2F8003143F007
:102870008073C2F800310320A2E7032005249FE7FC
:10288000354B0121984294BF4FF080704FF000709B
:1028900072E70021254AD2F85C3123F030030B4364
:1028A000C2F85C31F8BD01210A460220FFF746FE5E
:1028B0002021EFE73021EDE701210A460420FFF750
:1028C0003DFE1021E6E707247EE70020014692E75F
:1028D000164B00221A67F8BDFEF7B4F8054600282B
:1028E0007FF466AFD8E68C1E00250A2C3FF6CDAEED
:1028F00001A353F824F000BF43280700BD270700B9
:1029000049280700632807008B2607008B2607004D
:102910008B2607008B2607008B2607007B280700E5
:10292000252907000724FFF7CFFB54E700400E409E
:1029300088400E4084400E4080400E400048E80130
:102940004000C8430816C84314000020002D310180
:10295000C800C64300250A000090D00300300E4096
:1029600000000E40F8B504461120FFF731FC0220AC
:1029700000210122FFF7E2FD1748277C416A174D2D
:102980002678A288E38821F00101022F08BF41F0D8
:10299000010141622E60617A41EAC221C162016B8C
:1029A000257AA27A01F07F610A43E91C42EAC32238
:1029B0000F2942EAC51328BF0F2143EA01730363BD
:1029C000A17B637BE27B247B090141EA0333134350
:1029D00043EA04434363F8BD00400E40A004C843EB
:1029E000EFF3108072B6704700B962B6704700BF4F
:1029F000EFF3108072B6704700B962B6704700BF3F
:102A000042EA032340F2011293425BD0B3F5817F87
:102A100014D340F2012293424BD030D9B3F5407F1A
:102A200024D040F2013293423ED12B4BD3F878317F
:102A30001A0EC3F3074303600A607047012B2AD0C4
:102A40000BD3B3F5807F2FD1234BD3F86C311A0E03
:102A5000C3F3074303600A6070471F4BD3F86C3120
:102A6000C3F30722DBB203600A6070471A4BD3F846
:102A700070311A0EC3F3074303600A607047B3F561
:102A8000007F11D1144BD3F87031C3F30722DBB2AE
:102A900003600A607047104BD3F87431C3F3072208
:102AA000DBB203600A6070470022134603600A60CD
:102AB0007047094BD3F87831C3F30722DBB20360C8
:102AC0000A607047044BD3F874311A0EC3F30743FE
:102AD00003600A60704700BFB081E00F1B4BD3F862
:102AE000803103282DD8DFE800F0272910021B0EC3
:102AF00079B91B0313F4702F23D11549CA6E22F440
:102B000070421343CB6601207047C3F3074300298B
:102B1000EFD0012917D11B0313F4702F11D110B47A
:102B20000B4CD4F8E02022F4704213430846C4F85A
:102B3000E0305DF8044B7047DBB2D9E7C3F30723FD
:102B4000D6E7002070470120704700BFB081E00F3A
:102B500000300E40F8B5174B04460D46D3F800314F
:102B6000FDF736FF144A06461368002BFCD1134FBD
:102B70007B68C3F301439C420CD0022C11D0C4F1FA
:102B80000202102393403B611DB10B4A1368002BD6
:102B9000FCD104B1F8BD30462146BDE8F840FFF74E
:102BA000C3BA30462146FFF7BFFA10233B61002D20
:102BB000F0D0EAE700400E40C800C64300300E40A7
:102BC00010B5104B82B0D3F8004158B10E4B1B78B2
:102BD00013B10E4B98420ED9002002B0BDE8104050
:102BE000FFF7B8BF0191FDF7F3FEC4F3042404FB23
:102BF00000000199EAE7022002B0BDE81040FFF7AB
:102C0000A9BF00BF00400E4010060020FF2C31017C
:102C1000034B02781A7000200121FFF7D1BF00BFDB
:102C200010060020064942780B6823F4407343EAFB
:102C30000223022A0B6004BF024B5B6A704700BF8D
:102C400000300E4000400E401E498B6F1D4ADB07CE
:102C5000FBD4136C13F003031CD01B4A01218342E5
:102C600011601CD0032B02D1431E012B18D915492A
:102C70008A6F144BD207FBD41A6C22F00302024372
:102C80001A649A6FD207FCD400300F4B18BF012092
:102C9000186070470028E7D10B4B186070477047E9
:102CA00008494FF40023CB628A6F064BD207FBD44E
:102CB0001A6C22F0030242F001021A645A6A1103EC
:102CC000FCD5D4E700300E40B40AC6432DE9F04FDE
:102CD000A0F5E16489B00023B4F5966F02930393E5
:102CE00004930593069307936CD8B0F5E16F94BFF6
:102CF00000250125002D69D14A4BD3F86831C3F373
:102D00000724DBB2079404934FF4167B4FF49669C3
:102D1000DFF814A10191DAF84C60C6F3017604469D
:102D2000334602A805A990462A46FFF769FEDAF85D
:102D3000E070C7F301273B4603A806A92A46FFF720
:102D40005FFEDDF810C0079B02980090C9EB0404F9
:102D5000CCEB03030798DDF814E00699039A03FB14
:102D600004F3B3FBFBF3634498422BD39C4529D86F
:102D7000C2EB010909FB04F9B9FBFBF99144494590
:102D800020D34A451ED80099C1EB0E0202FB04F481
:102D9000B4FBFBFB8B44DE4514D3594512D8B8F184
:102DA000000F0BD0DAF85C2022F4FE4222F002027F
:102DB00042EA032343EA4503CAF85C30019B93B916
:102DC000012000E0002009B0BDE8F08F154BD3F8DA
:102DD00068311C0EC3F30743079404934FF4966BBA
:102DE0004FF4E16994E730460021FFF777FE0028B1
:102DF000E8D038460121FFF771FE0028E2D00A4AE8
:102E0000536ED94538BFD94623F4FF7323F001032D
:102E1000B9F1E70F28BF4FF0E7092B4343EA490315
:102E20005366D0E7B081E00F00300E403A4B1A6F86
:102E3000D96CC90730B402F0070241D5012A50D934
:102E400013285BD9143813288CBF4FF47F424FF4FA
:102E5000EE42314C3148E36C314D23F47F43134350
:102E6000E364E16C0288E06CC1F303210131283294
:102E700002EB520201EB8103B2FBF3F3013B072BA0
:102E800020F0EE6028BF072340F4801242EA03637B
:102E9000B5F90020E364002A10DB206D28324B00D6
:102EA00002EB520203EB5103B2FBF3F3072B20F0CA
:102EB000700028BF072340EA0313236530BC704726
:102EC000D96CCD0705D4012A1BD9DB6C6FF0FF024A
:102ED000BFE7DB6CDC0701D5012A08D96FF0FF02E0
:102EE000B7E7DA6CD1070CD5DB6CDB07F6D5272802
:102EF0008CBF4FF47F424FF4EE42AAE74FF44C529E
:102F0000A7E70928FAD90A3809288CBF4FF47F426D
:102F10004FF4EE429DE700BF00300E401206002045
:102F20000A060020054A064B06491B68136F23F06A
:102F30000703184310670888FFF778BF00300E407A
:102F40008009C6430C060020C3884A2B70B504468E
:102F500005D9B3F5FA7F4DD24FF0805000E0002044
:102F60002D49B4F90C60CA6C2C4D22F0405323F06B
:102F70000103002EA8BF43F001030343CB64D1F843
:102F8000E03043F44073C1F8E030CB6E43F080731F
:102F9000CB662868002836D1FFF7C4FF204B2149B3
:102FA000214EA0882589A2891A8030800D80FFF7E4
:102FB0003DFFA37B5BB3012B18D001210A4660883B
:102FC000FFF784FE054678B1134A6078D36B43F46B
:102FD0008063D363FFF738FEA37A144AA3F120037A
:102FE000B3FA83F35B091360284670BD0A4B104A9D
:102FF0009A65E2E740F6C310834294BF4FF0005059
:103000004FF04050ACE70420FFF78CFFC6E7024BBF
:10301000084A9A65D1E700BF00300E408009C643D8
:103020000A060020120600200C0600209407C64362
:10303000372110B777402057F0B545003AB12E1828
:103040009BBB1C4C3601344401268E4026602C1854
:10305000240104F18044072904F5204415D84FEADF
:10306000810E67680F2606FA0EF627EA060702FAAF
:103070000EF63E4366603AB92844C3B90D4B0001D1
:10308000034401228A401A60F0BD01F18046083EE7
:10309000A768B6004FF00F0E0EFA06FE27EA0E07DD
:1030A00002FA06F63E43A660E5E7034CCAE7024B88
:1030B000E5E700BF0CA000440CA00046F8B50446AC
:1030C00001211148FFF73EF8A178627825780F4B6F
:1030D0000F4841EA022242EA056200214FF40075DE
:1030E0004FF000474FF0FF361A601962D9625963FA
:1030F000DF669E66C0F88051E3785B01DBB280F842
:1031000009330560F8BD00BF00550A0000200E40DD
:1031100000E100E0F8B500EB40031B0103F1804340
:1031200003F562230C460968C3F88010617BC3F87D
:103130008810A57AE17A94F80CE01E4E2D04C0B2F6
:1031400045EA0151012522F00302854041EA4E5132
:10315000C3F88410C3F89820B566FFF749FCF36EF6
:10316000227A2B43F36612B1736B2B437363637A3A
:103170001BB1104AD36A2B43D3620E4B22791B68D2
:1031800022B1D243120262F47F42134062790AB143
:1031900043EA0223A2790AB123EA0203E27902B1E7
:1031A0001343044A044913600D60D563BDE8F84039
:1031B000FFF722BC00200E4028200E4410B5C0B2FC
:1031C00001248440FFF714FC054A0649D36E23EA24
:1031D0000403D3660C60BDE81040FFF70DBC00BFD0
:1031E00000200E4020200E44F8B5C3B2044601254D
:1031F0009D4004EB4404FFF7FBFB0A4A0A4B176EA1
:10320000966A240123445C68FFF7F6FB354206D139
:10321000C4F30A1008B93D4202D10130F8BD0020C4
:10322000F8BD00BF00200E4088200E40054A064B26
:103230005168526841F671321A649A6822F00102AC
:103240009A60704700300E4000000E40034B9A68B1
:10325000002122F001029A601964704700000E40BC
:10326000F0B58D7891F801C00B790C78CA7891F897
:1032700005E08F79084EA90141EA8C01214341EA1A
:103280000212043042EAC322000142EA0E3343EA4A
:1032900047433350F0BD00BF00200440427990F80E
:1032A00004C00178C379F0B5120390F801E0877883
:1032B000C6788579007A134C42EA0C220A43BEF1A3
:1032C000000F42EA034314BF04210021002F14BF62
:1032D000102200220B43002E43EA020314BF2022D7
:1032E0000022002D43EA020314BF4FF400420022E3
:1032F000002843EA020314BF4FF4003200221343B4
:103300002360F0BD0020044070B5044615461E46FB
:1033100001B3202E24D01AD9402E16D0602E21D1F0
:1033200004222368104823F06003236005FB02F2A7
:103330004901236801EB5201B1FBF2F2203AD200BD
:1033400010401E432660606170BD0622E9E756B951
:103350001022E6E70548FEF7E7FF202E0146DAD106
:103360000822DEE770BD70BDF8FF7F004041050018
:1033700038B50546144619B90548FEF7D5FF01468C
:1033800001396400B1FBF4F10902696138BD00BF85
:1033900040410500CB4303F005035B00C360C160FF
:1033A000704700BF134A1449002330B4904240F6DE
:1033B000AA6541F20504C56003604460836043610F
:1033C000C3648164036643678367C3670AD002F5F9
:1033D0008062904209D002F58062904202D08365FB
:1033E00030BC704700230365F9E7036530BC836593
:1033F000C365704700000140F9FF0100F8B50C46B5
:103400000546FFF7CFFFA37C1BB12B6843F0804339
:103410002B60E37C1BB1237D43F08003AB65278ADF
:10342000607BE689237B6168A2683843304368602B
:103430002846FFF769FF637D1BB12B6843F4803397
:103440002B60E27DA37D217812051B0702F4E002C8
:1034500003F0E04313432B666B6F23F030036B677D
:103460006B6F6B67E960F8BD70B50C460546FFF7FA
:1034700099FF238AA67B2A68207DA17C43F0010363
:10348000002E9BB243EA020314BF4FF48062002275
:1034900013432B602B68002814BF4FF0005200220A
:1034A00013432B6019B1E37C43F08003AB65237BAE
:1034B0006168A26843F480536B602846FFF758FFA9
:1034C000637B0BB11023EB60637D1BB12B6843F46E
:1034D00080332B60E27DA37D217812051B0702F467
:1034E000E00203F0E04313432B66E96070BD00BFC8
:1034F00003691B06FCD5C069C0B2704703695B064F
:10350000FCD54163704700BF704708B500F03AF83A
:103510000128FBD108BD10B50C4600F01EF81CB107
:10352000BDE81040FFF7F1BF10BD000008B528B995
:10353000034B1960034B1868FFF7E6FF08BD00BF97
:103540003000002014060020024B1B6803B118470E
:10355000704700BF180600207047032811D8DFE825
:1035600000F00E02070A00221146012000F09EBE64
:1035700000220121F9E7012211461046F6E7002258
:10358000FAE770470F4B5B68C3F30363013B0B2BF8
:103590000DD8DFE803F014140614141414080A08F4
:1035A0000808032070470420704705207047064B29
:1035B000DB6813F0060F14BF0420012070470220BF
:1035C000704700BF0040084000500840094A138877
:1035D0004FF6FF718B4210B509D00748074C0460C5
:1035E00000F100701B0403601180002010BD032057
:1035F000FCE700BF240600205C6008440000FFFFD9
:103600005D4B2DE9F3471C6881468A46154604B197
:103610000C3457A1D1E9000100EA090201EA0A03CA
:10362000134367D009F48010002150EA0102534B84
:1036300018BF534AD3F81C3118BF136009F40010A7
:10364000002150EA01021CBF4E4A136009F00052EB
:103650000023134309D04C4B1B6803F07F43B3F1A5
:10366000007F02BF494B02221A6009F001020023C9
:10367000134330D04FF00008002200230021012026
:10368000CDE9008800F074FC012000F04DFB4146BC
:10369000E0800120FFF73FFF3D4BD3F888305A020E
:1036A00008D4A36913F0800F14BF3A4A3A4A4FF482
:1036B00000131360394B1A683AB139496FF0FF00B3
:1036C000086001F1007102400A6000221A6023784C
:1036D00043F01003237000220AF00803134309D0BB
:1036E0000121204600F06AF82AF0080749EA00099B
:1036F00047EA010AD4E9222309EA02000AEA03019F
:1037000002460B46134306460F461CD0254BA4F138
:103710000C0019683B468847194A4FF0FF33136085
:10372000184A136006F00802002313431EBF1E4B05
:1037300000221A601D4A002316401F4056EA070364
:1037400001D0FFF743FFEB070DD51949194A086867
:10375000136800211160184A012111701BB102B0D9
:10376000BDE8F047184702B0BDE8F087AFF300802E
:10377000010030200800000014060020005008401E
:103780003C00002038000020FC1E002100400846BC
:1037900000400840186008461860084420060020D1
:1037A00018700844340000201C0600200000F02F90
:1037B0002C060020280600202606002038B50546E5
:1037C0000C46FFF70DF969692B690C4023432B6107
:1037D000FFF70AF900200CB9002138BD0821FCE7E9
:1037E0000A4B0B494FF48032C3F8E8200A609A6B09
:1037F000D1B2C2F3072299679A6704229A6700221E
:103800009A679A679A679A679A67704700100840A4
:10381000EC10084600EB40002DE9F84F040104F1DC
:103820008044042A04F5012406D8013A032A2DD83D
:10383000DFE802F044413E3B0B78A3614B78A36183
:103840008B78A361CB78A3612768D4F80880D4F87B
:1038500004A007F00707BB1D01279F4007F1FF39B0
:1038600009EA0800161FA7EB000B5E4501F10405ED
:103870004AF0005A0CD829465044324601F0DAFB8F
:1038800006EB080249EA07073A40A260BDE8F88F54
:103890005A462946504401F0CDFB05EB0B01A6EB3F
:1038A0000B02504601F0C6FBEAE70B78A361013139
:1038B0000B78A36101310B78A36101310B78A3610F
:1038C000BDE8F88F3023584300F1804000F5012017
:1038D000006AC0F30C007047402910B50A464FF04B
:1038E00001030BD8064C0146C4F8B8300320FFF79B
:1038F00091FF0423C4F8B830002010BD1846FCE73F
:103900000010084010B5FFF76BF81C4B1C491D4C0C
:1039100001229A65C3F888200A604C6007244C6233
:1039200019490C80194C002121804FF4A024C3F8C0
:10393000E84003F1C063EC331C60154B1960154B74
:10394000D3F888305C0212D5134B14491B684FF42E
:1039500080040C607BB1596A090608D493F84C3096
:103960000F494FF400140C600BB10E4B1A60BDE808
:103970001040FFF739B89B69FFDE00BF0010084018
:103980006010084030060020B2060020B00600207B
:10399000B406002000400840140600208840084477
:1039A00018600844F86008462DE9F041044698B1D3
:1039B000434EFFF715F83188424BDFF82CC101F078
:1039C0007F0202F07807022C05461F4464D1DCF820
:1039D000004024B9FFF708F80320BDE8F08124F087
:1039E0000104DCF8000020F00100A04258D10023BF
:1039F000CCF8003023886FEA43436FEA5343BC425C
:103A000023803DD1304ADFF8E4C01388ACF1800850
:103A1000CF18083B9BB204F10801F81A614528BF92
:103A20004146082B80B204D9B1F900E0BEF1000F85
:103A300041DB13802288A178244CC2F30C02E2639C
:103A400001F00701C2B2224832800429C2604362F9
:103A500016D1204B204AD3F88830204B1B684FF4F6
:103A6000800111604BB35A6A120609D493F84C30A6
:103A70001B4A4FF40011116013B11A4B01221A6056
:103A8000124BD3F8E030DB0301D5FFF7A9FE28463F
:103A9000FEF7AAFF0020A0E7012C08BF3C46A0E7E4
:103AA000A21AD31A084A128848BF8033083A9A42A9
:103AB000A0DC28468EE70C46ABE79B69FFDE00BF23
:103AC000B006002030060020B2060020001008409A
:103AD0006010084000400840884008441406002058
:103AE00018600844F8600846B4060020B0060020BC
:103AF0000D480E4A038812880D491A44073A02F00D
:103B000078020A4408339BB203809078094900F098
:103B1000070004284B6203D107494B681B03FCD400
:103B2000064B1A60704700BFB2060020B0060020A6
:103B3000300600206010084000400840B406002015
:103B400010B5054C206828B1C30701D4FFF72CFF3E
:103B50000023236010BD00BFB4060020094B4FF4C2
:103B600080321A60084BC3F8E420D3F88020C2F3F7
:103B70000C02782A05D8D3F8E030DB0301D5FFF733
:103B80002FBE7047EC1008440010084008B500F044
:103B900005F90D4A68B1D2F8003123F47F115B08B2
:103BA00003F4FE130B43C2F800314FF00073D361EE
:103BB00008BDD2F8183123F47F115B0803F4FE131B
:103BC0000B43C2F81831F0E700400840704700008E
:103BD00008B500F0E3F84FF4001330B1044A136065
:103BE000044B4FF000621A6008BD034AF7E700BFBC
:103BF000004108442040084418410844054B020194
:103C0000134401221A604FF4807303FA00F0024B50
:103C10005866704700510844005008401030034B6C
:103C20000001185800F00100704700BF0050084024
:103C3000014B024ADA66704700500840000001015B
:103C400070B50546FEF7D4FE084A094B9E69147804
:103C5000084A1268E4B20AB19E69013404F0030410
:103C6000FEF7CAFEC5E90046284670BDC006002022
:103C700000500840880B0A4308B5222000F03AF8AB
:103C8000024B4FF480225A6008BD00BF005008402C
:103C900013B502AB03E90300084B01991868009BB8
:103CA000484300EB8370064B1C684FF00042002332
:103CB000E1FB0423184402B010BD00BFBC06002085
:103CC000B806002013B56C462046FFF7B9FF94E80C
:103CD000030002B0BDE81040FFF7DABF38B5044674
:103CE000FFF7F0FF0546FFF7EDFF401BA042FAD3B8
:103CF00038BD0000044BD3F89430002BBCBF034BFD
:103D0000C3F88000704700BF004008400000084032
:103D1000044B5868C0F30360023801288CBF0020B0
:103D200001207047004008402DE9F041144FDFF8B2
:103D300058800646FEF754FE0246FFF7E9FFBB68CF
:103D40009B09C3F309049B0548BF44EA08040546E0
:103D5000FFF7DEFF24B20028104608BF0025FEF75B
:103D600043FE14F5007F05D10DB1002EE2D12046AF
:103D7000BDE8F081034B002D08BF1C46F7E700BFEC
:103D80000070084000FEFFFF00FCFFFF024B596976
:103D90009A680A401A61704700400440034BD3F808
:103DA000380180F01000C0F3001070470040084058
:103DB00010B5046884EA010323EA020200F180637B
:103DC00014401C6040F8042C00F1C0600A400260FE
:103DD00010BD00002DE90048FEF702FE134B1978D4
:103DE000E9B9134BD3E900234FF0000C02F4105B48
:103DF0005BEA0C0313D10F4B10221A600C4BD3E972
:103E000000234FF0000C02F4807B5BEA0C030BD123
:103E1000084B20221A60BDE80048FEF7E5BD064BBE
:103E200010221A600029E9D0034BF2E7D1060020E6
:103E3000C80600209440084494400846044B0022E1
:103E40001A70044B197811B11A70FFF7C3BF70478D
:103E5000D2060020D106002008B5FEF7C1FD0A4BAE
:103E60005B68C3F30363032B06D1084A136823F08E
:103E7000F00343F0E0031360054B40F201225A6265
:103E8000BDE80840FEF7B0BD00400840501F0021CB
:103E90000000084008B5FEF7A3FD234B4FF0805209
:103EA000C3F88020BFF34F8FBFF36F8F4FF4807242
:103EB000C3F88020BFF34F8FBFF36F8F0222C3F888
:103EC0008020BFF34F8FBFF36F8F1022C3F8802085
:103ED000BFF34F8FBFF36F8F2022C3F88020BFF353
:103EE0004F8FBFF36F8F4FF00052C3F88020BFF3A6
:103EF0004F8FBFF36F8F8022C3F88020BFF34F8FA7
:103F0000BFF36F8F4022C3F88020BFF34F8FBFF302
:103F10006F8F0122C3F88420BFF34F8FBFF36F8FE1
:103F2000BDE80840FEF760BD00E100E00D4B1B78E6
:103F30002DE930489BB10120FFF7C4FC044670B95D
:103F4000FFF77CFF084B094DD3E900BC2246012353
:103F50000BF4805000212B70FFF752FB2C70BDE852
:103F6000308800BFD2060020C8060020D0060020FE
:103F70002DE9F84F0A9E0B9F8046894602EA000A07
:103F800003EA010B3740002E3ED1002908BF01286B
:103F90001ED0C0F03181002908BF04284ED1FEF7A1
:103FA0001FFD9649D1E9002322F0040444EA0A02E5
:103FB00043EA0B03C1E900235AEA0B0314BF904AFA
:103FC000904A4FF480631360BDE8F84FFEF70CBDD4
:103FD000FEF706FD8949D1E9002322F0010443EAF6
:103FE0000B0344EA0A02C1E900235AEA0B03864A9A
:103FF0004FF0010304D0936302F1C0623C32E2E768
:1040000082490B609363DFE758EA090316D1012E5A
:1040100014D1FEF7E5FC7E4A136823F001033B430D
:1040200013604FF480637B4A27B1536602F1C0628C
:104030006832C8E778490B605366C5E7FFF72AFF87
:104040006E4BD3E9004525EA090224EA080142EA59
:104050000B096F4A41EA0A08C3E90089136823EA99
:1040600006063E431660FFF7B5FE08F02A620023FD
:10407000134348F2020108BF4FF40041B20748BFA2
:1040800041F4005100226548FFF792FE08F4004217
:104090000023134308F480324FF0000314BF4FF4A1
:1040A00080510021134308F010024FF0000318BFA5
:1040B00041F48071134308F020024FF0000318BF51
:1040C00041F40051134308F040024FF0000318BFC1
:1040D00041F4007113434FF0000308F0800218BF51
:1040E00041F48061134318BF41F4006100224C4841
:1040F000FFF75EFE002209F00803134308F4006294
:104100004FF0000314BF4FF480210021134308F443
:1041100080424FF0000318BF41F48031134308F090
:1041200002024FF0000318BF41F48011134308F45A
:1041300080224FF0000318BF41F4800113434FF079
:10414000000308F4003218BF41F40021134318BFE4
:1041500041F40011730748BF41F0040101223148C6
:10416000FFF726FE304B3149314816F0010F18BFDA
:10417000194608F08042002313434FF0000308F073
:10418000004218BF41F40011134318BF41F0007101
:104190000022FFF70DFE002208F001012548FFF77D
:1041A00007FE08F4002200231343234B234924482D
:1041B00008F004044FF0000518BF194654EA05033F
:1041C0004FF4A02218BF41F48061FFF7F1FDFEF724
:1041D00007FC1C4B4FF080521A604FF480721A603B
:1041E00010221A6020221A604FF000521A608022BA
:1041F0001A6040221A60E7E6BDE8F88FC806002082
:10420000EC100846EC100844007008403C7008446C
:10421000C406002000500840685008446C00084064
:104220000C62084020400840041C50000418500054
:10423000685008403C7008400D0A0A09090A0A093A
:10424000EC10084000E100E0F8B5094D094E0A4FB6
:10425000D5F8882004243460D5F888305B0300D476
:10426000F8BD3C600220FFF739FD3460F4E700BF81
:1042700000400840884008468840084438B5054654
:10428000FEF7AEFB0446FFF73DFB35B1FFF7D6FD69
:104290002046BDE83840FEF7A7BB034B1B78002B38
:1042A000F6D1FFF743FEF3E7D00600202DE9F047F3
:1042B00080460E461546FEF793FB07463EB3474938
:1042C0000A46D1F8703103F00F03032B01D0092BFC
:1042D00006D1D2F88C30DB03F3D4536F0C2BF0D91A
:1042E000FFF7B2FF3E4B3D4901221A6003F17E43C6
:1042F0007C3304221A604A6812F0706FFBD14FF4CD
:1043000040121A60374A136823F0F0031360364CEA
:10431000FFF75CF9A02323600320FFF77FFC28B19F
:104320000320FFF76BFC0420FFF768FCFFF780FC1D
:104330002E4BDFF8A8A000221A67FFF785FF2C4A52
:10434000136843F0200313602A4BFF221A604FF0DA
:1043500004094FF48073CAF80830C4F80090B8F12B
:10436000000F09D0FFF778FDFFF786FC2023CAF87D
:1043700008304846FFF742FC56B32846FFF77EFF59
:104380001D4B5B681D4B01221A600DB31C4BDA6E8E
:104390009A6603F580431A6ADA6103F50053D3F88D
:1043A0000C22C3F80822A3F54053DA6F9A67A3F5ED
:1043B0000053D3F8EC20C3F8E82003F5C043DA6BD0
:1043C0009A63A3F500530F4A5A664FF47C43236067
:1043D0003846BDE8F047FEF707BB00BF0040084085
:1043E0000C400846501F00218840084400500840F7
:1043F000E01E002100400844B081E00F0C4008445A
:10440000000008405000F0027A4B2DE9F74F1E6E75
:10441000DA6E16409E6603F58053D3F8E070D3F849
:10442000EC201740C3F8E87003F5A043D3F800125E
:10443000D3F80C2201EA020BC3F808B2A3F500532B
:1044400059691A6A01EA02084FEA18421204DA614D
:10445000694BD3F80022940006D4D3F80031C3F39B
:104460004073002B00F0A680FEF7BAFA634BDA68BF
:10447000D96D12F0060F9A6E01EA020929F4800242
:1044800014BF4FF0010A4FF0000A22F4006219F045
:10449000040F5A6604D05A4A13780133DBB2137002
:1044A000FEF7A2FA002E00F09F80300440F18580D4
:1044B000544B5549D3F88830A02003F4E0520A60E9
:1044C0000860102041F8880C002A78D0D90479D4EB
:1044D0005A057AD44FF08074B3074FF000050AD51F
:1044E000484B4949D3F8883003F460420A60002AF7
:1044F0006ED144F4001416F4005618BF0226434B44
:104500003B40BBB317F4206F08D00020FFF7B6FE86
:104510000621002027F48027FFF708F817F0090F7D
:104520000AD0384B20229A60A3F5405301229A62A8
:1045300008210020FEF7FAFF17F0106F0AD0314B68
:104540000021202208469A60FFF7C6F909210020C1
:10455000FEF7ECFF17F4202F08D00020FFF78EFEA7
:104560000721002027F48027FEF7E0FFFA0301D59A
:10457000FFF7F4FA7B0708D5254B1A684FF4005370
:10458000AAB3244A44F400241360780548BF44F0D9
:10459000040417F4802745D0FFF7AAFA013806284B
:1045A0003CD8DFE810F0F500F800F500FB00FE0055
:1045B000010101019A46994674E700248CE74FF403
:1045C000801489E74FF0806486E74FF4800483E726
:1045D000180402D544F000648DE799044CBF44F4FC
:1045E000000444F0007486E70024002587E70A4AA7
:1045F0001360CAE70000084000E100E000500840F6
:10460000C00600200040084088400844090A0B0901
:10461000B404024324100844241008460321002057
:10462000FEF784FFBBF1000F1DD01BF4805F18BFA5
:1046300044F400441BF4807F18BF44F480341BF41E
:10464000005F18BF44F010041BF4007F18BF44F053
:1046500020041BF4806F18BF44F040041BF4006F6B
:1046600018BF44F08004B8F1000F40D018F0007F6C
:1046700018BF46F0080618F0806F18BF46F0100605
:1046800018F0006F18BF46F0200618F4802F18BFEE
:1046900045F0080518F4803F18BF44F4006418F48E
:1046A000801F18BF44F4804418F4800F18BF44F0F2
:1046B000020418F4001F18BF44F4003418F4002F4B
:1046C00015D0934B1B6859060FD4924B5A68C2F30E
:1046D0000362032A01D0072A09D1D3F88C20D2061D
:1046E00005D4D3F890301B0701D444F48024B9F1E9
:1046F000000F00F0848019F4006F19D08649874AB2
:1047000091F803B0BBF1000F53D04FF400630BF1ED
:10471000FF3B53665FFA8BF3CB704BB9804B197834
:1047200040F60143002942D002F1C0626C321360AE
:1047300019F0007F04D02B20FFF7DCFA44F000448E
:1047400019F4E00F06D119F4805F4CD0BAF1000FD4
:1047500000F0978019F4001F04D02920FFF7CAFA4F
:1047600044F0804419F4800F32D00420FFF746FA59
:104770002720FFF7BFFA6B4BA0221A60102243F8E4
:10478000882C664B4FF480025A6644F000542AE0AD
:1047900044F4005446E744F4806443E744F400746E
:1047A00040E744F480743DE744F008043AE71367B7
:1047B000BEE703200192FFF721FA5B4B019A41F615
:1047C0001F7119604FF400635366C2F870B0AFE711
:1047D00019F4801F41D00420FFF710FA2820FFF7BA
:1047E00089FA44F0805419F4806F08D04A4A9378CB
:1047F000002B00F08480013B937000231E434B4B41
:10480000DFF84C91D3E900AB494B1A680AEA04007F
:10481000012332400BEA050189F80030FEF7F0FE73
:10482000002389F800301FB1FFF78AF9FFF77EFBFC
:10483000B8F1000F68D018F0007F01D0FFF7A6F99B
:1048400018F0806F01D0FFF7C1F918F0006F5BD04E
:1048500003B0BDE8F04FFFF7BBB919F4805FC2D0D9
:104860000420FFF7CBF9FFF707FA2C4BDB6D13F4AD
:10487000A00FB8D12A20FFF73DFA2E4B01229A62F1
:1048800083E7254A137963B1013BDBB2137123B18E
:104890000022002314431D43A5E7274B274A1A6033
:1048A000F6E70420FFF7AAF90320FFF7A7F9FFF7BF
:1048B000BFF9FEF795F8224B1B7883460BB1FFF743
:1048C000CBFA0120FEF7FEFF124B5B68C3F30363D4
:1048D000032B00D028B11B4B1A781B4B4FF0010A59
:1048E0001A705846FEF780F8BAF1000FD0D1174B76
:1048F00083F800A0FFF76EFA4FF48052C9E7022058
:10490000FFF77CF9012379E703B0BDE8F08F00BF22
:10491000E01E0021004008405417002000500840CD
:10492000D3060020884008446C500844C806002084
:10493000C4060020001008406C5008460000010D1D
:10494000D4060020D5060020D2060020D106002083
:10495000D0060020FFF758BDFFF756BDFFF754BD46
:10496000FFF752BD024A01231360024AD361704728
:1049700020400844004008400E4B10B55C691A6A9C
:104980001440A2B2DA61E20704D55868C0F30360AC
:10499000FFF7E8FF63070CD5074B084C1A680020A7
:1049A000012302F0040200212370FEF729FE0023F8
:1049B000237010BD00400840C4060020D00600202F
:1049C000FFF722BD0C4A136BD16B0B4010B59363FC
:1049D000DB0710D5094B0A4C1878122100F00100B2
:1049E000FEF7A4FD01230022012000212370FEF721
:1049F00007FE0023237010BD00700840C806002089
:104A0000D0060020024B1A6FD96F0A409A67704790
:104A10000030084053B94AB9002908BF00281CBF1C
:104A20004FF0FF314FF0FF3000F03CB882B0EC4661
:104A30002DE9005000F01EF8DDF804E002B00CBCD7
:104A4000704700BF2DE9F041069C154606460F460B
:104A5000984600F029F805FB01F300FB0838A5FB98
:104A60000023B21A434467EB0303C4E90023BDE803
:104A7000F08100BF2DE9F041069C904606460F46A6
:104A80001D4600F05FF900FB05F5A0FB082308FBBD
:104A90000155B21A2B4467EB0303C4E90023BDE8B8
:104AA000F08100BF704700BF00292DE9F043C0F23C
:104AB000A6800026002BC0F29C80884694469E4625
:104AC000154604460F46002B3DD18A4259D9B2FA09
:104AD00082F33BB1C3F120029F4020FA02F29D40D5
:104AE00017439C40290C220CB7FBF1FEA8B201FB36
:104AF0001E7742EA074700FB0EF3BB420AD97F1933
:104B00000EF1FF3280F00581BB4240F20281AEF12E
:104B1000020E2F44FF1AA4B2B7FBF1F301FB137787
:104B200044EA074700FB03F0B84208D97F1903F1B4
:104B3000FF3280F0F080B84240F2ED80023B43EA61
:104B40000E43002203E08B420FD900221346341C8F
:104B500018BF012460424FF0000565EB4501584045
:104B6000514000196941BDE8F083B3FA83F2002A8D
:104B700040F086808B4202D3844500F2DB80012323
:104B8000E5E712B90123B3FBF2F5B5FA85F0002889
:104B90003BD1781B4FEA154E1FFA85FC0122B0FB72
:104BA000FEF8210C0EFB180741EA07470CFB08F33F
:104BB000BB4207D97F1908F1FF3102D2BB4200F294
:104BC000BD808846FF1AA4B2B7FBFEF30EFB137735
:104BD00044EA07470CFB03FCBC4507D97F1903F1E6
:104BE000FF3102D2BC4500F2A7800B4643EA0843DE
:104BF000ADE752426FEA060663EB43035DE74042CE
:104C000061EB41014FF0FF3654E7C0F1200224FA76
:104C100002F107FA00F385404FEA154ED7401943D9
:104C2000B7FBFEF20B0C0EFB12771FFA85FC43EA72
:104C300007430CFB02F79F4204FA00F407D95B1903
:104C400002F1FF3074D29F4272D9023A2B44DF1B2B
:104C500089B2B7FBFEF80EFB187341EA03430CFB65
:104C600008F79F4208D95B1908F1FF315CD29F42D7
:104C70005AD9A8F102082B44D81B48EA02428EE711
:104C8000C2F120032CFA03F10EFA02FE20FA03F718
:104C900041EA0E0E08FA02F028FA03F14FEA1E4527
:104CA0003843B1FBF5F8030C05FB18111FFA8EF71A
:104CB00043EA014107FB08F38B420CFA02FC09D9D5
:104CC00011EB0E0108F1FF3930D28B422ED9A8F139
:104CD00002087144C91A80B2B1FBF5F305FB131148
:104CE00040EA014107FB03F78F4208D911EB0E019F
:104CF00003F1FF3016D28F4214D9023B714443EACC
:104D00000843C91BA3FB0C89494509D305D00022E0
:104D10001DE79646FEE6134611E794404445F6D259
:104D2000013BF4E70346EAE78846A5E7C846D1E732
:104D300002468CE713460AE7023B57E7A8F1020850
:104D40002F443FE72DE9F041002B44D18A4215461C
:104D500004464FD9B2FA82F70E464FB1C7F120038D
:104D6000B94020FA03F602FA07F50E4300FA07F4F9
:104D70004FEA154E230CB6FBFEF0AFB20EFB1061EE
:104D800043EA014307FB00F1994209D95B1900F19D
:104D9000FF3280F0EC80994240F2E98002382B44E7
:104DA0005A1AA4B2B2FBFEF30EFB132244EA0242EB
:104DB00007FB03F7974208D9521903F1FF3180F03E
:104DC000D880974240F2D580023B43EA004000265B
:104DD0003146BDE8F0818B4247D8B3FA83F6002E06
:104DE00048D18B4202D3824200F2CD80012031466D
:104DF000BDE8F08112B90125B5FBF2F5B5FA85F8E9
:104E0000B8F1000F77D14A1B4FEA154EAFB2012619
:104E1000B2FBFEF0230C0EFB102143EA014107FB1D
:104E200000F38B4207D9491900F1FF3202D28B42BD
:104E300000F2BA801046C91AA4B2B1FBFEF30EFB11
:104E4000131144EA014407FB03F7A74208D9641988
:104E500003F1FF3280F08F80A74240F28C80023B4A
:104E600043EA00403146BDE8F08100263046314635
:104E7000BDE8F081C6F1200422FA04F5B3402B43CB
:104E800020FA04FC01FA06F721FA04F54FEA134E62
:104E90004CEA0707B5FBFEF8390C0EFB18551FFA54
:104EA00083FC41EA05450CFB08F1A94202FA06F22F
:104EB00004D9ED1808F1FF3467D3A0466D1ABFB2CC
:104EC000B5FBFEF40EFB145547EA05410CFB04FC50
:104ED0008C4504D9C91804F1FF355CD32C4644EA4B
:104EE0000844CCEB0101A4FB0223994248D344D0EF
:104EF000204600266CE7C8F1200401FA08F305FA01
:104F000008F520FA04F7E1404FEA154E1F43B1FBC4
:104F1000FEF63A0C0EFB16111FFA85FC42EA01431D
:104F20000CFB06F29A4200FA08F407D95B1906F165
:104F3000FF3137D29A4235D9023E2B449B1ABFB279
:104F4000B3FBFEF00EFB103347EA03430CFB00F10A
:104F5000994207D95B1900F1FF3221D299421FD93A
:104F600002382B445A1A40EA0646674650E7104674
:104F700016E70B4629E7134672E7B0409042B7D2D6
:104F8000601E002624E7304622E7A94295D9A8F101
:104F900002081D4492E78C45A0D9023C19449EE7C3
:104FA0001046DFE70E46C9E70238294443E700BF51
:104FB00008B5074B044613B10021AFF30080054B41
:104FC0001868836A03B198472046FBF7C5FB00BF0A
:104FD000000000008462070070B50E4B0E4CE41A0E
:104FE000A41000251E46A54204D056F82530984747
:104FF0000135F8E701F002F8084C094BE41AA41057
:1050000000251E46A54204D056F8253098470135A4
:10501000F8E770BD88030020880300208C0300207F
:1050200088030020024B0146186800F05BB800BFFF
:10503000A000002010B5431E0A44914204D011F88C
:10504000014B03F8014FF8E710BD024403469342B9
:1050500002D003F8011BFAE77047000030B50029C1
:105060003DD051F8042C0B1F1D49002AB8BF9B18D6
:105070000A680C4612B95A600B6030BD93420DD2DB
:1050800019685818904201BF5A5852181A6042685D
:105090005A60236030BD994203D80A4651680029FE
:1050A000F9D1146815199D420AD11B682344D01800
:1050B0008842136013D10868034413604B680DE005
:1050C00002D90C23036030BD1C681819884204BF44
:1050D00008684968596004BF00191860536030BD02
:1050E000DC06002070B5CC1C24F0030408340C2C22
:1050F00038BF0C24002C064603DA0C233360002052
:1051000070BD8C42F9D3204A136810461946A1B1EC
:105110000A68121B0ED40B2A03D90A608B188C5014
:105120001FE08B420DBF5A684A685A60026018BF80
:105130000B4616E00B464968E9E7144D2B681BB98E
:10514000304600F0BDF828603046214600F0B8F83F
:10515000421C0346D1D0C51C25F0030585420AD167
:105160001C6003F10B001A1D20F00700821A0AD000
:105170005142995070BD3046E91A00F0A1F8013053
:10518000BBD02B46ECE770BDDC060020D806002023
:105190000FB40A4B13B51C6824B1A36913B9204698
:1051A00000F0D4FA05AB2046A168049A019300F000
:1051B000CBFB02B0BDE8104004B07047A000002057
:1051C00070B50E46054618B183690BB900F0BEFAFA
:1051D000AB69AC6813B9284600F0B8FA314B9C4271
:1051E00001D16C6808E0304B9C4201D1AC6803E00F
:1051F0002E4B9C4208BFEC68A389190701D523698F
:1052000083B92846214600F047F958B14FF0FF30E6
:1052100070BD002B0EDB236816F8012C1A70236872
:1052200001332360A36816F8012B013BA360002A19
:10523000EFD116E0A269934209DB236816F8012C2E
:105240001A70236819780A29EAD1284602E016F86C
:10525000011C2846224600F0CBF8421C5042504127
:10526000D3E7002B15DAA269934208DB23680A22F0
:105270001A702368197891420FD1284601E0284618
:105280000A21224600F0B4F8431C5842584130B17C
:10529000BCE723680A221A702368013323600A20BE
:1052A00070BD00BF88620700A8620700C8620700DF
:1052B000024B01461868FFF783BF00BFA000002023
:1052C00038B5064C0023054608462360FBF768FA0C
:1052D000431C02D1236803B12B6038BD5C1700204A
:1052E0002DE9F0411D463D4B1E6804460F46904691
:1052F00026B1B36913B9304600F028FA384B9C4206
:1053000001D1746808E0374B9C4201D1B46803E0D6
:10531000354B9C4208BFF468B8F1020F5AD8002DF3
:1053200058DB3046214600F0A7F900236360A361F3
:10533000A3891B0603D530462169FFF78FFEA38999
:10534000B8F1020F23F08303A38112D037BB002DE5
:1053500008BF4FF480652846FFF764FE0746C8B9CA
:105360004FF48060FFF75EFE074688B94FF0FF30CC
:1053700000E00020A38943F00203A3810023A3607F
:1053800004F147032360236101236361BDE8F081D9
:105390004FF48065A38943F08003A381B8F1010F26
:1053A00001BFA38943F00103A3816B4208BFA3613E
:1053B0000E4BB362A389276003F0080080B2276117
:1053C000656148B113F0030F18BF0025A5600020E8
:1053D000BDE8F0814FF0FF30BDE8F081A000002073
:1053E00088620700A8620700C8620700CD56070060
:1053F00070B50D461446064618B183690BB900F026
:10540000A5F9224B9C4201D1746808E0204B9C42D4
:1054100001D1B46803E01F4B9C4208BFF468A36944
:10542000A360A3891A0709D523693BB123682069C2
:10543000181A63699842EDB20FDB08E03046214646
:1054400000F02AF80028F1D04FF0FF3070BD304650
:10545000214600F011F90028F6D1A368013BA360B2
:1054600023685A1C22601D7063690130984204D081
:10547000A389DB0707D50A2D05D13046214600F068
:10548000FBF80028E0D1284670BD00BF8862070005
:10549000A8620700C8620700314B70B51D68064658
:1054A0000C4625B1AB6913B9284600F04FF92D4BD6
:1054B0009C4201D16C6808E02B4B9C4201D1AC6846
:1054C00003E02A4B9C4208BFEC68A3899AB21107FB
:1054D0001DD4D50602D40922326038E0500712D517
:1054E000616B41B104F14403994202D03046FFF7A9
:1054F000B5FD00236363A38923F02403A381002364
:10550000636023692360A38943F00803A3812369AF
:105510004BB9A38903F42073B3F5007F03D0304661
:10552000214600F09BF9A38913F0010205D0002267
:10553000A26062695242A26103E0990758BF6269A2
:10554000A26022694AB903F0800080B230B143F012
:105550004003A3814FF0FF3070BD002070BD00BF3D
:10556000A000002088620700A8620700C862070048
:105570008A892DE9F041054610070C4657D44B683F
:10558000002B02DC0B6C002B18DDE66AB6B102F4CE
:105590008052002392B22F682B600AB1626D10E036
:1055A000216A28460123B047411C024609D12B68D5
:1055B0003BB11D2B01D0162B47D12F600020BDE839
:1055C000F081A3895B0705D56368D21A636B0BB1C1
:1055D000236CD21AE66A216A00232846B047461C8B
:1055E000A38905D12A681AB11D2A01D0162A19D11A
:1055F00000226260D9042269226004D5421C01D1D4
:105600002B6803B96065616B2F600029D6D004F167
:105610004403994202D02846FFF720FD0020606332
:10562000BDE8F08143F04003A381BDE8F0810F693C
:10563000002FC3D093070E6808BF4B690F6018BFD7
:105640000023C7EB06088B6012E0A38943F04003F8
:10565000A3814FF0FF30BDE8F0812846216AA66A99
:105660003A464346B0470028EFDD0744C0EB080840
:10567000B8F1000FF1DCA1E738B50B6905460C461F
:10568000DBB118B183690BB900F060F80C4B9C4298
:1056900001D16C6808E00B4B9C4201D1AC6803E07F
:1056A000094B9C4208BFEC68B4F90C302BB128467A
:1056B0002146BDE83840FFF75BBF002038BD00BF82
:1056C00088620700A8620700C8620700014900F06D
:1056D000A7B800BF79560700002310B50446036041
:1056E0004360836081814366C2810361436183615A
:1056F00019465C300822FFF7A8FC054B6362054B96
:10570000A362054BE362054B2462236310BD00BF17
:10571000855E0700A75E0700DF5E0700035F0700E6
:1057200070B568234D1E5D430E4605F17401FFF709
:10573000D9FC044640B1002180E842000C30A06052
:1057400005F16802FFF781FC204670BD836910B542
:10575000044633BB8364C3640365124B124A1B685F
:105760008262984204BF0123836100F01FF86060E9
:10577000204600F01BF8A060204600F017F8042136
:10578000E06000226068FFF7A7FFA06809210122FE
:10579000FFF7A2FFE06812210222FFF79DFF01231D
:1057A000A36110BD84620700CD560700F8B51B4BFE
:1057B0001E68B369074613B93046FFF7C7FF48367E
:1057C000B4687368013B04D4B4F90C5075B1683403
:1057D000F8E733682BB938460421FFF7A1FF3060A2
:1057E00008B13668ECE70C233B60F8BD4FF6FF7359
:1057F000E3810123A38165662560A560656025615D
:105800006561A56104F15C0029460822FFF71DFCD3
:105810006563A563A564E5642046F8BD846207005E
:105820002DE9F8438046894600F14804002694B1EA
:10583000A5686768013F0CD4AB89012B07D9B5F97E
:105840000E30013303D040462946C8470643683529
:10585000F0E72468EBE73046BDE8F883F0B58B89C4
:105860009D0791B006460C4626D4B1F90E100029CA
:1058700009DAA38913F0800F4FF0000514BF402709
:105880004FF480670DE001AA00F062FB0028F0DB16
:10589000029D05F47045A5F500514D424D414FF470
:1058A000806730463946FFF71DFC60B9A3899A0529
:1058B0001DD443F00203A38104F147032360236155
:1058C0000123636113E00B4BB362A389206043F0B3
:1058D0008003A381206167614DB13046B4F90E1099
:1058E00000F048FB18B1A38943F00103A38111B074
:1058F000F0BD00BFCD5607009368013B002B10B5EB
:10590000936009DA9469A34202DBCBB20A2B03D17C
:10591000BDE81040FFF76CBD1368581C106019708B
:10592000C8B210BDF8B506460F461446D518AC42AD
:1059300008D0304614F8011B3A46FFF7DDFF431C40
:10594000F5D100E00020F8BD2DE9F0439DB00D46F3
:1059500090460393064618B183690BB9FFF7F6FE2C
:10596000754B9D4201D1756808E0744B9D4201D191
:10597000B56803E0724B9D4208BFF568AB891C0710
:105980000AD52B6943B10023099320238DF82930D0
:1059900030238DF82A3041E030462946FFF77CFD60
:1059A0000028F0D04FF0FF30C2E0039A111D1268BA
:1059B0000391002ABBBF524243F0020307920792B1
:1059C000B8BF0493013423782E2B7BD0DFF880817D
:1059D00021784046032200F0EFFA38B1049AC8EB70
:1059E0000000402383401343049301342178554839
:1059F0008DF82810062204F1010800F0DDFA0028D5
:105A000000F08580504B002B78D1039B073323F0A7
:105A1000070308330393099B3B44099343461C4601
:105A200013F8012B1AB9B4EB08090ED002E0252AAD
:105A3000F5D1F8E73046294642464B46FFF772FF5C
:105A4000013070D0099B4B4409932378002B6AD016
:105A500000234FF0FF3204930793059206938DF8CD
:105A600053301A9304F101084446DFF8E890217896
:105A70004846052200F0A0FA08F10108049B30B165
:105A8000C9EB00000122824013430493ECE7D806DF
:105A900044BF20228DF85320190744BF2B228DF8D4
:105AA000532022782A2A80D0079923461C460133A6
:105AB0002278303A092A03D80A2000FB0121F5E7B1
:105AC000079180E763782A2B0AD1039B1A1D1B6874
