S01600006D676D31335F626F6F7473747261702E733337FC
S20C000000000001204D09070075
S214070000000001204D0907004909070049090700B4
S2140700104909070049090700490907004909070070
S2140700204909070049090700490907004909070060
S2140700304909070049090700490907004909070050
S21407004049090700A54807004909070049090700A5
S2140700505943070011490700B1480700C948070078
S214070060A9480700590E070049090700490907006C
S21407007089070700490907004909070049090700D2
S2140700804909070049090700490907004909070000
S21407009049090700490907004909070049090700F0
S2140700A049090700490907004909070049090700E0
S2140700B015490700AD480700DD3C07005D1307003C
S2140700C055490700490907009534070049090700FD
S2140700D049090700490907004909070049090700B0
S2140700E049090700490907004909070049090700A0
S2140700F049090700490907004909070010B5054CD3
S214070100237833B9044B13B10448AFF300800123B7
S214070110237010BD98030020000000009C600700B5
S21407012008B5034B1BB103490348AFF3008008BD6E
S214070130000000009C0300209C600700154B002B66
S21407014008BF134B9D46A3F5803A00218B460F4602
S2140701501348144A121A04F0D0FD0F4B002B00D098
S21407016098470E4B002B00D098470020002104002C
S2140701700D000D48002802D00C48AFF3008004F0AD
S21407018085FD2000290000F03FFA04F06BFD00BF54
S214070190000008000000012000000000000000002A
S2140701A098030020581700200000000000000000F9
S2140701B0704700BF08B50121044801F095FF0121EB
S2140701C00348BDE8084001F08FBF00BF00320400B7
S2140701D000350A00F0B53C4C3C4E94E80F0001256C
S2140701E0756437688DB003AD47F480773760103491
S2140701F085E80F00284602F02FFE0FCC07AD0FC587
S214070200334B22685B682A801B035BBF314B1B8816
S2140702104FF4AD73C3F3080307A8ADF8223002F016
S2140702203DFB2D4800F0ECFB01221146022002F0B0
S21407023051F90421112002F0DDF9002211460320AE
S21407024002F048F90121254801F04EFF0121234815
S21407025001F04AFF0321224802F0CCF90321214886
S21407026002F0C8F90321204802F0C4F91F4B93E8AF
S214070270070007AB03C30024012107A81A708DF8EF
S2140702801C108DF81D408DF81E408DF81F408DF808
S21407029020408DF8224002F097FF0CA800F82C4D5E
S2140702A002F04AFC022302A88DF809308DF80840B0
S2140702B002F04CFC0E4A136823F4E06343F4007321
S2140702C013600DB0F0BD00BFC05D070000000E4014
S2140702D0B081E00FB881E00F00F0490200250A0060
S2140702E002001E000300200005002400E45D07004E
S2140702F000500E4008B501221146032002F0EAF826
S21407030005211120BDE8084002F074B938B50A4C3B
S2140703102368C3F30A02054622B9184605F048FDC6
S21407032030B92368294618464FF4806205F044FD25
S214070330003018BF012038BDE40E0020F0B583B0AA
S2140703404AB3871806464FF6FF7516F8014B84EA38
S214070350152484EA141444EA0525A4B285EA04356C
S21407036085EA441424B2BE42A5B2EED12D0AE4B201
S21407037085540B4B7C701D680A4B00930024931C16
S21407038001940A460146284601F000FE001B18BFE6
S214070390012003B0F0BDFF2425460746E8E700BF67
S2140703A000000020A90307002DE9F041834D2B78B4
S2140703B05A1F012A40F28A80FE2B40F2024740F27B
S2140703C0014611BF4FF480600220042703267C4BAA
S2140703D001301C4618441A464FF6FF7112F8013BC7
S2140703E083EA112383EA131343EA01219BB281EAC6
S2140703F0033181EA4311904289B2EFD1A35DE25DF2
S21407040042EA03228A4204D06E4804F027FDFF23FF
S2140704102B70237893B1A3F10902D2B2F32A1AD824
S214070420FF22062B2A704CD1FF232B70664864499F
S21407043003700322BDE8F041FFF780BFFF222A7052
S214070440FF229342F0D1062B49D000F29880B3B32F
S214070450042BE9D962E0062B2A783ED0082B59D11F
S214070460072A30D12B70594E59483168594FA1F594
S214070470006104F0F3FCD6F800C04FF40062944520
S2140704804FF0FF3311D01178561C082281EA03007B
S21407049010F0010F4FEA530318BF7B40013A4FEAAB
S2140704A05101F3D132469445EDD1D4F8012012BA62
S2140704B0934247D0484804F045FDFD232B70BDE81E
S2140704C0F081082B06D19342AED1CCE70220042751
S2140704D003267CE7052BA7D0B2E7FE2AB1D13A4C14
S2140704E037490723204640F2014223702B70FFF757
S2140704F025FF08B1FF232B70002304221846114658
S21407050002F030FD0422114601230020BDE8F04129
S21407051002F028BD052B94D1062A0DD12A4C28496E
S21407052006232046032223702B70FFF707FF0028B9
S214070530C5D0FF232B70C2E7FE2AEFD0052A7FF42B
S21407054073AFEBE74FF07E6005F032FC30B1FD236A
S2140705502B702248BDE8F04104F0F4BC0422204981
S2140705604FF07E6005F028FC0028F0D102F006FE6A
S2140705701C4804F0E7FC1C4B01221A609FE7082B77
S2140705803FF471AF17D2114C2368B3F5E02FB1D201
S21407059016480D4EFFF7BAFE2368094903F5806330
S2140705A00727304640F2014223603770FFF7C6FE42
S2140705B000289FD1A0E7FD2B81D337E7E80E002060
S2140705C0EC0E00200C5E0700E0060020E40E00207C
S2140705D02C5E07002083B8ED585E07006C5E0700A8
S2140705E0040000208C5E0700D8060020ED0E0020D1
S2140705F008B5FFF77FFE4FF400631C68A54603F1B6
S21407060004031B681847FEE770B588B06FF002034F
S2140706102E4C0093FFF7DEFD2D4804F093FC21686F
S2140706202C4804F01BFC236801333BD0FFF7C2FDC0
S214070630294D2A4EFFF7BCFD042211460123002050
S21407064002F090FC0FCD01AC0FC495E8070084E8D4
S214070650070001A9306801F03DFB02F07FFD4FF06F
S2140706607E621F4B12681F484FF400619A42016072
S21407067013D01D4C1D4D1E49FE2320460322237012
S2140706802B70FFF75BFE28B91A4A1368002BFCD0BD
S214070690FFF7AEFFFF232B70F6E7174804F0DEFBE5
S2140706A0FFF7A6FF154804F04DFC204604226946CE
S2140706B005F082FB28B9054B1148196804F0CEFBF4
S2140706C0B4E7104804F03EFCF5E700BFE841E00F4A
S2140706D0A85E0700D05E0700F05D07000000002058
S2140706E0584C4E45E40E0020E0060020E80E002099
S2140706F0EC0E0020D8060020645F0700F45E0700B3
S214070700305F07000C5F070000207047FEE700BF5A
S2140707104FF400534B600020704700BF012070471E
S2140707200020704770B57AB10D461646002404E0DF
S2140707300134A64205F8010B04D000F0ADF8431CBF
S214070740F6D10CB1204670BD4FF0FF34FAE700BF74
S214070750044A05491368002B08BF0B461844106067
S21407076018467047B40300205817002070B5161EA9
S21407077007DD0C468D1914F8010B00F0C1F8A542E9
S214070780F9D1304670BD00BF104803691B0609D56E
S21407079070B50F4C2368072B05DDC36C23F00403E5
S2140707A0C36470BD70470B4D2E6802F047FE0A4BB8
S2140707B098552B6801332B602368013323602B6819
S2140707C0082BEED100232B6070BD00BF0000014050
S2140707D0C4030020CC030020BC03002070B5012111
S2140707E088B02548254D264E01F07EFC0121254878
S2140707F001F07AFC002108460123042202F0B2FB2E
S214070800012319460222002002F0ACFB0FCD01ACF3
S2140708100FC495E8070084E8070001211A4801F08D
S21407082063FC08A9002401F81C4D304602F03AFD87
S21407083003237367B26F154B22F4F85204204FF464
S214070840805122F01F02B267B064C3F88011F26CC1
S2140708500243F26430461960052102F01BFD0C4B7B
S2140708601A68214623469068022204F083FB094B48
S21407087001221A7008B070BD40410500945F07005A
S2140708800000014000350A000032040000E100E0E5
S21407089040000020B9030020144B1B7810B5F3B1B5
S2140708A002F042F8124A1368002B1BDD114B124C5C
S2140708B01968645C1968013119601968082904BF4A
S2140708C00021196013680D49013B1360CB6C43F098
S2140708D00403E4B2CB6402F02BF8204610BDFFF702
S2140708E07DFFDDE74FF0FF34F5E700BFB9030020D3
S2140708F0C4030020C8030020BC03002000000140FA
S2140709000E4B1B7810B5044653B10D4B1B780BB135
S2140709100A2C08D021460B4802F096FD204610BD4B
S214070920FFF75CFFF1E70D21064802F08DFD214633
S214070930044802F089FD204610BD00BFB903002019
S214070940B803002000000140FEE700BF08B500F02E
S21407095075F8064B0648834206D2064A52F8041B29
S21407096043F8041B9842F9D8FFF7E8FB000000207D
S21407097098030020A86007000048704700F0490267
S2140709800F4BD3F8943003F00703032B14D0042B34
S2140709900FD0022B0AD00B4B1868094BD3F800313F
S2140709A0C3F304230133B0FBF3F07047064B186814
S2140709B0F3E7064B1868F0E74FF40040EDE700BF93
S2140709C000400E40100000200C00002014000020FD
S2140709D008B5FFF7D5FF054B054AD3F80831C3F32B
S2140709E008230133B0FBF3F0106008BD00400E404B
S2140709F008000020014B1868704700BF0C00002055
S214070A0008B50B4B0B4A1860D2F8943003F007036F
S214070A10022B00D008BDFFF7B3FFD2F80831064A0D
S214070A20C3F308230133B0FBF3F0106008BD00BF23
S214070A300C00002000400E4008000020044B054A2A
S214070A409A60D3F8882042F47002C3F8882070476B
S214070A5000ED00E0000007004FF40040704700BFBD
S214070A604FF47A70704700BF014B1868704700BF95
S214070A70140000202DE9F04F594C85B025789DF8D5
S214070A8044A09DF84CE0002D66D0072A14465FD890
S214070A900E9A002A5CD00F9A002A59D0129AB2F5FD
S214070AA0006F55DC012806460F464ED0DFF8449106
S214070AB04FEA041809EB0802127B002A50D0494A6D
S214070AC000216501CDE90111039102EB050C002F0A
S214070AD048D157519CF802009CF80310CCF80470D4
S214070AE040F0100041F03001CCE902778CF80200A4
S214070AF08CF80310BAF1000F65D00093129B515B78
S214070B00013B63F30E11515315440E99EB78A96018
S214070B106EF383030F996960012EEB703CD0149B2C
S214070B20002B56D009EB08032046149C49F80840CA
S214070B30159D5D600024624669465E739C6002F000
S214070B4087FA204605B0BDE8F08F109A002AADD187
S214070B50254805B0BDE8F08F244805B0BDE8F08FFE
S214070B602348F6E751519CF802B09CF80300CCF8EE
S214070B7004104BF0100B40F00300CCE902118CF880
S214070B8002B08CF80300BAF1000FB6D1C1B241F03B
S214070B9030018CF80310B0E71323EB6095E80F00DD
S214070BA005F1100E8EE80F00EA69109B6B616FF077
S214070BB0030161F39F02012FEA61B3D10F9BAB617B
S214070BC0109B6B60AEE7C9B241F003018CF80310C7
S214070BD093E7AB78149A62F30413AB70A2E700BFEF
S214070BE05005002050040020018000F0028000F02D
S214070BF0078000F0D003002038B5114B1B7883B16F
S214070C0088B1054601F090FE0E4900220B461C7B74
S214070C10103354B10132082AF9D101F089FE0A4887
S214070C2038BD0A4838BD0A4838BD13012A60CA18B5
S214070C300125CC50157301F07BFE204638BD00BF5A
S214070C4050050020D0030020048000F0028000F04A
S214070C50018000F010B5174A82B00023126801928F
S214070C608DF8043001F060FE134B1C78E4B90122BE
S214070C701A7001F05DFE114B04220DEB02001C7387
S214070C801C7783F82C4083F83C4083F84C4083F865
S214070C905C4083F86C4083F87C408DF8072002F0B0
S214070CA0ABF9204602B010BD01F042FE044802B080
S214070CB010BD00BFB05F070050050020D00300201E
S214070CC0038000F0F0B589B09DF838500F9C9DF86A
S214070CD04070119E03950494129D01930024009280
S214070CE00B460246CDE9057607950294214620462F
S214070CF0FFF7C0FE09B0F0BDF0B589B09DF83850D3
S214070D000F9C9DF84070119E03950494129D0193C5
S214070D10002400920B460246CDE905760795029415
S214070D2020460121FFF7A6FE09B0F0BD08B50A4B1D
S214070D301A7862B1072808D8084A02EB00131B7B0B
S214070D403BB102F0D5F9002008BD054808BD0548A7
S214070D5008BD054808BD00BF50050020D003002089
S214070D60018000F0028000F0078000F00D4B1B7832
S214070D70A3B1072810D879B10B4B03EB00131B7BE5
S214070D8073B10A4B01221B6A02FA00F018401ABF19
S214070D9000200A7008707047054870470548704776
S214070DA00548704750050020D003002000200E405D
S214070DB0018000F0028000F0078000F00D4B1B78E2
S214070DC0A3B1072810D879B10B4B03EB00131B7B95
S214070DD073B10A4B01221B6E02FA00F018401ABFC5
S214070DE000200A7008707047054870470548704726
S214070DF00548704750050020D003002000200E400D
S214070E00018000F0028000F0078000F00D4B1A7892
S214070E1092B107280DD861B10B4A02EB00131B7B72
S214070E206BB110B50C4602F079F90023206018461E
S214070E3010BD064B18467047054B18467047054BBE
S214070E401846704750050020D0030020018000F0A8
S214070E50028000F0078000F02DE9F8431D4E326E41
S214070E60F36E12EA030834D41B4CDFF870900127A0
S214070E70002506E00135082D4FEA470704F1100460
S214070E8025D018EA070F2846F4D02368B766002B44
S214070E90F0D0D4E901210131A1609847637B012B8B
S214070EA0E8D109EB451303F1080218330028E1D10E
S214070EB0117960F3410111711A79013560F3410226
S214070EC0082D1A714FEA470704F11004D9D1BDE877
S214070ED0F883FEE700200E40D003002050040020D1
S214070EE02DE9F84F2C4C4FF0000A04F1A0050646F2
S214070EF000274FF0010B237F84F81DA073B1D4E9B8
S214070F0000239F4208BF9642104619460BD2921BF3
S214070F1063EB070310461946C4E900012834AC42C0
S214070F20E9D1BDE8F88FE37F33B92377A369002BB0
S214070F30F4D084F81DB0F1E7D4E90289301A67EBDC
S214070F40010142464B4603F00DFD21696069B8EB87
S214070F50020869EB030942464B460029C4E9002309
S214070F600CDD01441D296161E0D918F1010249F140
S214070F7000031E39C4E900236161D7E7411A1D291A
S214070F806161D3D918F1FF3249F1FF331E39C4E93D
S214070F9000236161CAE700BF600500201A4BF0B462
S214070FA003F1A0014FF0FF344FF0FF351A7F3AB137
S214070FB0D3E90067AF4208BFA6423CBF34463D466A
S214070FC028339942F2D1114A002313706B1C08BFCD
S214070FD0B4F1FF3F16D00E490E4B086000276FF09E
S214070FE06406AF424FF0040108BFA642196238BF35
S214070FF03446084B20445865012111705A6A42F05E
S21407100004025A62F0BC70476005002058050020AD
S2140710105405002000200440114B1B7870B583B19F
S214071020104C054601F080FC002321468A7F2831B4
S21407103052B10133042BF9D10B4C01F079FC204651
S21407104070BD0A4C204670BD45B103EB830104EB27
S214071050C10101268E7714462B60EEE7044CECE7B9
S2140710605905002060050020011000F0061000F06A
S214071070041000F070B51C4D2C78002C32D10121DD
S2140710801A481B4E01F030F803211A4801F0B2FA4D
S21407109001211948347101F027F8304602F094F818
S2140710A01649012002F074F8154A1649536A16487D
S2140710B023F4FF6323F00703536240F2FF731362C0
S2140710C04FF000439460C1F88031A0220B602146A0
S2140710D003F013FE0D4B0E490E4A1C7001230C70CD
S2140710E014602B70002070BD5905002000250A00EB
S2140710F01800002005002400A00914002400002082
S2140711000020044000E100E06005002051050020B3
S214071110580500205C0500202DE9F04F714C247817
S21407112083B0002C00F08B80032800F284800446EE
S2140711304FEA80096C4D019309EB040B05EBCB0BCB
S21407114090468A4601F0F0FB9BF81E20019B064658
S214071150002A7ED0B8F1000F75D0644F4FF40042D6
S2140711604FF4FA700021BF68CBF81830E2FB08018D
S21407117000234FF47A72019703F0F4FBBAF1010FDC
S21407118002460B46CBE902230AD14FF47A7303FBD8
S21407119008F8C0EB0013A8EB43030F22CBE9043291
S2140711A0534A0C9F127809EB040305EBC30301307F
S2140711B041F100014FF0010C83F81FA0C3E90001BD
S2140711C01F6283F81CC07ABBDFF83C81D8F8003072
S2140711D0013304D0D8F800300133C8F80030454B47
S2140711E01B78002B39D1444A019C404B14600422DB
S2140711F01A6200238B426FF0640208BF824238BF30
S2140712001046019A394B104458655A6A42F0040250
S2140712105A62384B01211970D8F8003023B1D8F834
S2140712200030013BC8F80030304601F081FB002053
S21407123003B0BDE8F08F314803B0BDE8F08F304803
S21407124003B0BDE8F08F002BEED020460C999847E8
S214071250EAE701F06DFB2B48EEE7D8F80030012BE4
S214071260DAD14C44244B019F1868DFF8809001962A
S214071270E4002B194FF0000A83F81CA05646381ACC
S214071280A246D9F82430184C23F00403C9F82430B2
S214071290FFF726FE4FF0000B637F58460BF1010B56
S2140712A013B1A369216A9847BBF1040F04F1280418
S2140712B0F2D11EB905EB0A0301221A773846FFF763
S2140712C06DFE0D4B0B491A68D9F808700978D9F8DE
S2140712D054300136B81A9B1A09B19842D1D2019EEA
S2140712E09AE700BF5905002060050020002004404B
S2140712F0510500205805002054050020021000F074
S214071300061000F0031000F05C05002038B50E4B01
S2140713101B789BB103280FD8044601F005FB0B4B3F
S21407132004EB840403EBC404A37F4BB100252577A5
S21407133001F0FEFA284638BD054838BD054838BDD1
S21407134001F0F6FA044838BD59050020600500206C
S214071350021000F0061000F0031000F02DE9F84F19
S214071360204D01F0E1FA6B6AAA69134023F00502E3
S2140713705B0781462A6230D51B4FDFF874A03A68B0
S214071380AE68DFF8708001238AF80030B01A6B6AFF
S214071390164C23F004036B62FFF7A2FD4FF0000B19
S2140713A0637F58460BF1010B13B1A369216A98476F
S2140713B0BBF1040F04F12804F2D13046FFF7EEFD27
S2140713C0AE683A686B6D98F80010B01A9B1A09B1A8
S2140713D09842DCD200238AF800304846BDE8F84F2A
S2140713E001F0A6BA0020044054050020600500203E
S2140713F05105002058050020DE4A0368934230B4A2
S2140714001FD0DD4A93421CD0DC4A934240F0188234
S2140714100379002B40F01C821A460A7045790C2D7A
S21407142040F22782A5F10D02062A40F2E182A5F1D5
S2140714301402092A40F21D821F2D14BFFF22002224
S21407144018E20279052A17D9931F042B40F2EE8279
S214071450A2F10B03052B40F21983A2F11103062B09
S21407146040F24483A2F11803062B40F247831F2A53
S21407147014BFFF23052300E000230B704379042BDA
S21407148017D95C1F042C40F2A982A3F10A04052C85
S21407149040F2EE82A3F11004062C40F21783A3F164
S2140714A01704072C40F23E831F2B14BFFF2400248B
S2140714B000E000248C708479032C19D9251F042D8D
S2140714C040F28882A4F10905052D40F2C982A4F1ED
S2140714D00F05062D40F2F682A4F11605072D40F2F9
S2140714E02F831E2C04D01F2C14BFFF25002500E0D9
S2140714F000250D71C07902281BD9C51E042D40F2A0
S2140715006382A0F10805052D40F2A482A0F10E051E
S214071510062D40F2D182A0F11505072D40F2008373
S214071520A0F11D05012D04D91F2814BFFF2500258E
S21407153000E000258D71002A58D0012A56D0022ACD
S21407154054D0032A52D0042A50D0052A4ED0062A51
S21407155000F06682072A00F06D82082A00F076827D
S214071560092A00F07B820A2A00F088820B2A00F0FC
S21407157089820C2A00F090820D2A00F097820E2AA4
S21407158000F096820F2A00F09F82102A00F0488209
S214071590112A00F08D82122A00F09682132A00F094
S2140715A03F82142A00F04682152A00F04F82162A38
S2140715B000F05482172A00F06182182A00F0AE82E3
S2140715C0192A00F0A7821A2A00F0B4821B2A00F014
S2140715D0AF821C2A00F0AA821D2A00F0A5821E2AC6
S2140715E000F050821F2A0CBF0722FF224A70002BEA
S2140715F05DD0012B00F03981022B00F0E381032B2D
S21407160000F00282042B00F0E381052B00F0028233
S214071610062B00F00782072B00F01082082B00F03D
S2140716201182092B00F01E820A2B00F023820B2B57
S21407163000F02A820C2B00F031820D2B00F032824C
S2140716400E2B00F031820F2B00F0E481102B00F0F8
S2140716502982112B00F02882122B00F0DB81132B36
S21407166000F0E081142B00F0E981152B00F0EA81E9
S214071670162B00F0F781172B00F05E82182B16D07A
S214071680192B00F0F2801A2B00F09C811B2B00F020
S214071690BB811C2B00F09C811D2B00F0EB811E2BC1
S2140716A000F0F2811F2B14BFFF23002300E0012365
S2140716B0CB70002C64D0012C00F0D580022C00F0F3
S2140716C07F81032C00F0A281042C00F07F81052C7B
S2140716D000F0A281062C00F0A781072C00F0AC8151
S2140716E0082C00F0B581092C00F0BE810A2C00F00A
S2140716F0C3810B2C00F0CC810C2C00F0CB810D2C79
S21407170000F0CE810E2C00F061810F2C00F0C28114
S214071710102C00F0C581112C00F05881122C00F017
S2140717207B81132C00F08081142C00F08581152C0A
S21407173000F08E81162C00F0E981172C00F0FE8150
S214071740182C1DD0192C00F08E801A2C00F038812A
S2140717501B2C00F05B811C2C00F086811D2C00F0F2
S2140717608B811E2C00F0D2811F2C0CBF0123FF2378
S21407177007E000BF000001400004014000080140E8
S21407178002234B7100285ED0012870D0022800F093
S2140717901581032800F03281042800F039810528D6
S2140717A000F01A81062800F03981072800F04081EA
S2140717B0082800F04581092800F046810A2800F02D
S2140717C04B810B2800F052810C2800F059810D2818
S2140717D000F014810E2800F049810F2800F0508190
S2140717E0102800F00B81112800F01281122800F053
S2140717F0F380132800F01281142800F019811528A9
S21407180000F0EE80162800F05581172800F09A8120
S214071810182818D019282AD01A2800F0CF801B2895
S21407182000F00E811C2800F00F811D2800F0D880DC
S2140718301E2800F03F811F280CBF0223FF2303E06A
S214071840B54830BC704703230020CB7130BC7047C7
S2140718505A1E0C2A40F2D680A3F10E02062A8CBF27
S214071860FF220522D9E503238BE7022320E704237B
S214071870EAE7FF228A7084790B2C0DD9A4F10C02B3
S214071880062A40F2B180A4F11302092A04D91E2CB5
S21407189014BFFF22002200E0FF220A71C2790A2A3B
S2140718A00DD9A2F10B00062840F29C80A2F1120087
S2140718B0092804D91D2A14BFFF20002000E0FF20B6
S2140718C08871CBB1581E0C2840F29A800E2B00F078
S2140718D093800F2B00F01081102B00F00B81112B3B
S2140718E000F00681122B07D0132B00F00981142B6A
S2140718F014BFFF23072300E005230C2D4B701CD9CC
S2140719000D2D77D00E2D00F0E3800F2D00F0E6802A
S214071910102D00F0E780112D00F0E280122D00F068
S214071920F380132D00F0EE80A5F11403092B04D9DC
S2140719301F2D14BFFF23052300E0FF230B2CCB70BE
S2140719401CD90C2C52D00D2C00F0B8800E2C00F0B1
S214071950B7800F2C00F0C080102C00F0BB80112C35
S21407196000F0C280122C00F0D380A4F11303092BD9
S21407197004D91E2C14BFFF23052300E0FF230A2AE1
S2140719804B7119D90B2A2BD00C2A00F093800D2AFD
S2140719903FF459AF0E2A3FF46AAF0F2A0ED0102A2B
S2140719A04ED0112A50D0A2F11203092B04D91D2AB2
S2140719B014BFFF23052347E7FF2345E7052343E730
S2140719C00423DEE6032373E60125B3E50B23D8E6F7
S2140719D005236DE601258CE50D2335E7012469E52A
S2140719E0002331E705206BE7052256E70023C6E705
S2140719F005223FE70023A1E700237EE70B2323E723
S214071A00FF237AE7FF2208E5042351E60523B8E615
S214071A100C2319E70B234BE60C23B2E60E2313E73A
S214071A200B22E3E50C2343E60D23AAE6012324E570
S214071A300F2309E70C22D9E50E23A2E60D2337E686
S214071A40062301E70E2333E60723FDE60D22CDE541
S214071A500F2396E602256DE50823F5E60E22C5E573
S214071A60022546E50F2323E606238AE60923EBE647
S214071A7002241FE506231BE6072382E60F22B5E5A9
S214071A800A23E1E60622B1E5072311E60223F4E47A
S214071A90082376E6092374E60722A7E5082307E660
S214071AA00A236EE6092303E60A2301E608229DE5D4
S214071AB009229BE50123C7E603253BE501235EE7ED
S214071AC003235CE7032514E50A228FE50324F1E4E4
S214071AD0012333E7052352E7042350E703232DE7C3
S214071AE005232BE7042329E7062348E70323C4E453
S214071AF0042302E7032300E70123FEE60523BCE4ED
S214071B000623FAE6072319E7062317E7002338E62E
S214071B10072334E7012269E5022000F0002265E585
S214071B20052507E50524C5E405225FE504225DE5EE
S214071B3003225BE5022259E50023B9E5012320E6E7
S214071B400525D6E402237FE690F83C200A4B016C75
S214071B5002EB4202D20113440B449B0002E090F8CA
S214071B60482012B11A68002AF9D090F848300BB905
S214071B70406C704700207047E000851038B5144663
S214071B8000F0D2FE227D0023012A0546636484F80E
S214071B904830A3630AD0E36A1BB1626B2046002174
S214071BA09847284600F0C4FE012038BD606DFFF751
S214071BB0ADFBF0E72DE9F04304461F4687B0E36820
S214071BC00068676300264FF440658946082B0E9920
S214071BD084F85060C560E16229D9092B19BF00F166
S214071BE0240300F13C0500F1180300F13005012637
S214071BF0DFF844C0A16A206A04944FF00108CDF8C4
S214071C000CC0CDE90176CDF80080FFF775F8616A5C
S214071C10E069CDF800800024CDE901764B462A46D8
S214071C20CDE90344FFF74EF807B0BDE8F08300F1AF
S214071C301C0300F13405DBE77D1B070091F84830ED
S214071C40012B00D0704710B50C4682B00DF1060187
S214071C50206AFFF78BF89DF80630BBB90DF1070130
S214071C60E069FFF7ABF89DF807306BB9636BA363C2
S214071C70E36A0C496164002284F8482023B1D4E95A
S214071C800D02821A2046984702B010BD206AFFF759
S214071C904DF8E069FFF74AF804F13801206AFFF7C4
S214071CA0B5F8E5E7052000F038B5054600F03CFE38
S214071CB095F8483043B903F0FF04012385F8483008
S214071CC000F036FE204638BD00F032FE004838BD2C
S214071CD0032000F0F0B59C4D06460F460FCD89B0A1
S214071CE002AC0FC495E8030084E80300002E00F05A
S214071CF0CF8097B158220021304602F0FEFF3B689E
S214071D00924A93423C4635460BD0914A934200F09E
S214071D10C380904A934200F0B3808F4E304609B096
S214071D20F0BD8E4B8E4AF3644FF44023C6E9092371
S214071D3027460FCF2E460FC697E8070086E8070008
S214071D40637D012B08BF8DF81630A37D4BB1012BA1
S214071D5000F0B680022B00F0DB80032BDDD14FF4BA
S214071D604073ADF81830237D7E48012B05BF00224F
S214071D704FF47A73A3688DF815200121049300F0B9
S214071D80B3F90121784800F0AFF90121E86C00F0BB
S214071D90ABF9E3681A1F0C2ABFD8033B02A92068D1
S214071DA08DF8143001F0DAFA6369226823F47F03AA
S214071DB023F47F431BB9136843F4803313602379F6
S214071DC0A179E07D66791B02090600286CD1E079C7
S214071DD00B43916F334301F0E03143EA00430B4373
S214071DE00F219367516769462846FFF705FB0646A6
S214071DF0002893D19DF806209DF807302F7D9DF883
S214071E0000009DF80110C5E90F23002F5DD13B4662
S214071E10042201F0A7F83B4601229DF803109DF81F
S214071E20020001F09FF8AB7D9DF805109DF80400B1
S214071E30012B94BF3B460123042201F093F8EB7D68
S214071E40002B71D000F070FD484B1A78002A64D03A
S214071E5000F06EFD237D012B6ED0FEF7FBFE002102
S214071E6005F11C00FEF7C8FE40B9014605F1200043
S214071E70FEF7C2FE064600283FF450AF3C4E4DE73D
S214071E803C4B3D4AF3644FF46023C6E909234FE70A
S214071E903A4E304609B0F0BD394B3A4AF3644FF430
S214071EA05023C6E9092343E7906F0B4320F01F2111
S214071EB021F01F0133430B430B219367516792E7CA
S214071EC04FF40073ADF818304DE73346012201F0A2
S214071ED049F8334604229DF803109DF8020001F0E6
S214071EE041F8AB7D9DF805109DF80400012B94BFC3
S214071EF033460123022201F035F8EB7D002BA1D1F2
S214071F0001230222296C95F83C0001F02BF899E78B
S214071F104FF48073ADF8183025E701221A7000F0E9
S214071F2007FDFFF7A7F895E701230422296C95F824
S214071F303C0001F017F885E705F15400FFF76CF849
S214071F4000288AD0104EE9E6B45F0700000001407B
S214071F500004014000080140022000F0003204009F
S214071F6001000C004041050000350A00000600206D
S214071F70092000F00052040001000E00012000F0C6
S214071F800042040001000D00042000F02DE9F04196
S214071F90057D82B015B3E1B1DBB1B3F5006F18DC90
S214071FA004461E4690460F46FFF77EFE054688B94E
S214071FB0B8F1000F0DD0099BE3B9237E012B12D091
S214071FC0089B00934246334639462046FFF7F2FD04
S214071FD000E00C4D284602B0BDE8F0810A4D2846C1
S214071FE002B0BDE8F0812046FFF7AEFD0028E7D037
S214071FF00546EFE7606D054B0094099A2946FFF7FB
S2140720008BF8DAE7022000F0082000F03D1C0700F6
S21407201010B4134B134A5B680024C9B28C4223469C
S21407202008D00133052B02F1080215D012F8084C28
S2140720308C42F6D152F80C4C8442F2D30A4A02EB91
S214072040C3035B791A0606495DF8044B4B6823F011
S214072050407313434B6070474FF04072F3E700BF7F
S21407206000000E40E85F0700DC5F070038B5074C46
S21407207041F67133256C2364FEF77EFC0021FFF7DB
S214072080C7FF0DB10023236438BD00BF00000E4014
S2140720900C4A0D4BD2F89010516A21F0300141F0EE
S2140720A0100110B45162146BC0F3C31103312340FF
S2140720B00F2928BF0F21034343EA017313635DF813
S2140720C0044B704700400E4000F8FF0F38B5054C2C
S2140720D041F67133256C2364FFF79AFF0DB1002391
S2140720E0236438BD00000E40C0F30323013B30B421
S2140720F0092B0CD8DFE803F00D110B0B152D190B68
S2140721002705164CC0F3043020448000016030BC1D
S2140721107047C0F30430124CF6E7C0F30430114C96
S214072120F2E7C0F30430104CEEE7104CC0F304306F
S21407213010250F4BD3F84421D207E5D4D3F8402116
S2140721402A42FBD1E0E7C0F304300A4C4FF480354F
S214072150EFE7C0F30430084C0125EAE7800AF210DF
S2140721600000F2100006F2108005F2104007F21089
S21407217000400E408007F2100007F21000F00F0034
S2140721800138072847D8DFE800F0121D3346283EF7
S2140721904604264BD3F85C3103F03003202B40D09F
S2140721A0302B40D0102B0CBF0720012070471F4B49
S2140721B0D3F8943003F00703023B052B2FD81C4AAD
S2140721C0D05C7047194BD3F8803003F00703013B08
S2140721D0032B22D8174AD05C7047144BD3F88830A5
S2140721E003F00703013B032B17D8134AD05C70474D
S2140721F00E4BD3F8843003F00703013B032B0CD8B0
S2140722000E4AD05C7047094B1B6F13F0010F14BFC3
S21407221009200720704700207047012070470520D7
S2140722207047042070470820704700BF00400E40E4
S214072230CC5F0700D45F0700D45F0700D85F0700AE
S21407224008B50146FFF79AFF1E4B99422FD01E4B43
S214072250994226D01D4B99421DD00138032803D832
S214072260DFE800F01511042B002008BDFEF7B0FBD1
S214072270174BD3F80031C3F300635A1C012393406E
S214072280B0FBF3F008BDBDE80840FEF7EDBBBDE8C0
S2140722900840FEF7E1BB0E4BD3F8800000F00700BE
S2140722A0DBE70B4BD3F8880000F00700D5E7084BB1
S2140722B0D3F8840000F00700CFE7BDE80840FEF734
S2140722C0CFBB00BF030020000500240002001E004D
S2140722D000400E4000F47810B0F5A01F08B500F0D7
S2140722E098801BD9B0F5001F33D054D9B0F5381FE6
S2140722F034D066D9B0F5401F6BD0B0F5481F1AD159
S2140723005B48FFF73BFF072842D0082800F0A58068
S214072310042810D1BDE80840FEF76CBBB0F5202FA7
S21407232013D00AD9B0F5602F2DD0B0F5801F2FD067
S214072330B0F5402F1CD0002008BDB0F5003F7DD07B
S214072340B0F5802F6FD00028F5D1BDE80840FEF71E
S21407235017BB4848BDE80840FFF772BF4648FFF777
S2140723606FFF464BD3F82031C3F30113D84008BD9F
S214072370FEF706FB414BD3F81431C3F304230133AE
S214072380B0FBF3F008BD3E48FFF7F8FE072860D11C
S2140723903C4B186808BDB0F5D01F2DD0B0F5F01F20
S2140723A025D0B0F5B01FC6D13348FFF749FF334BEA
S2140723B0D3F82021012302F00F029340B0FBF3F07D
S2140723C008BDB0F5101FB6D12F48BDE80840FFF787
S2140723D037BF2848FFF734FF284BD3F82831C3F315
S2140723E001231A1D01239340B0FBF3F008BD2248D2
S2140723F0BDE80840FFF724BF1E48FFF721FF1F4B25
S214072400D3F828210123C2F301129340B0FBF3F05F
S21407241008BD1D48FFF714FF184BD3F8303103F0FB
S2140724200303D84008BDFEF7ABFA144BD3F80C31BC
S214072430C3F308230133B0FBF3F008BDFEF7A0FA99
S2140724400E4BD3F80831C3F308230133B0FBF3F080
S21407245008BD09287FF46FAF77E7FEF791FA074BB9
S214072460D3F80031C3F3042303FB000008BD00BF05
S214072470B80032000300200002001E0000400E4095
S21407248006000E002C000020050024000F4B5B6A98
S21407249013F0300F06D0202914D0302902D009B106
S2140724A00B4A01E04FF440020849D1F8903032EA6F
S2140724B00303FAD1530246BFD1F8A000C0F3802029
S2140724C0012070474FF40002EEE700BF00400E40C1
S2140724D0FFF3E17FF8B5042818D8DFE800F03018D6
S2140724E0374D52003F4C1C44A40000213E4B1D664E
S2140724F02368002BFCD04AB13A4C3444A400236826
S214072500002BFCD0022801D1002948D1F8BD802431
S2140725104025062307260029E4D1012098403249A2
S2140725200C66D1F890300342FBD1002AEED0012288
S2140725302D49B240D1F890301342FBD1F8BD4FF485
S21407254000744FF4807508230926E4E7002944D071
S214072550254B5C6A14F0300F18D1244CE46B5C6A88
S214072560E40718D55D6A224C25F0300545F01005BE
S2140725705D6203260425B9E701252E4602240023BB
S214072580C9E72024102504230526C4E7184C04258C
S21407259003260021AAE7164C04250326A6E7124AB7
S2140725A0114E516A11F001011FBF20214FF48063BD
S2140725B0C2F8A8305166FFF769FFD6F89C7001226B
S2140725C000210220FFF786FFC7F30A00FFF760FD2A
S2140725D035662368002BFCD0F8BD042008240326A4
S2140725E09DE700BF8004F21000400E4000300E400A
S2140725F00812C8431128F8B50C460DD000F00F0096
S2140726000138072807D8DFE800F00C6466063F5B4A
S214072610062904232B60F8BD042900F090800529BD
S2140726205BD00025023C0A2CF5D801A353F824F00A
S21407263051280700192807001F2807003928070010
S214072640172607001726070017260700172607006E
S2140726501726070093270700572807004C1E072C46
S214072660D9D801A353F824F08F27070017260700A9
S21407267017260700812707001726070017260700D3
S214072680732707005F270700774D013C092CC2D840
S21407269001A353F824F000BF3B2707002D270700A8
S2140726A01F2707001726070017260700EF2607002D
S2140726B01726070017260700172607001326070002
S2140726C0072900F0CD800929A5D1684B01221A6792
S2140726D0F8BD674DD9E7674DD7E7674A674B156873
S2140726E09D429ED90021284600F0FEF99AE7FEF79C
S2140726F06FF9634B984229D800231C4661495B4A09
S2140727000C60D2F8000101F5AE51083120F0807058
S21407271018430124C2F8000103230C607AE701225C
S21407272011461046FFF7D6FE012373E7012211462E
S2140727300020FFF7CFFE02236CE700236AE7FEF7C9
S21407274059F9054600283FF46CAFCBE74E4B0124FA
S21407275098428CBF4FF000734FF08073CEE730215E
S214072760424AD2F85C3123F030030B43C2F85C319F
S214072770F8BD012211460420FFF7ACFE1021EFE753
S214072780012211460220FFF7A5FE2021E8E70021D7
S214072790E6E70320052401221146FFF79BFEFFF715
S2140727A065FC1DB1394A1368002BFCD12F4B3848FE
S2140727B05C67FFF78FFD324B98424ED9324B0124A8
S2140727C098428CBF4FF000734FF080732D49274A0D
S2140727D00C60D2F8000120F080701843C2F80001A0
S2140727E0FEF7F6F8294B1C68002CFCD1294B2A4E1D
S2140727F05968376C41F67133C1F301413364FFF70B
S21407280007FC07B13464002D7FF405AF2846012185
S214072810BDE8F84000F068B901200324BBE7194B70
S214072820124A01211960D2F80031022043F0807362
S214072830C2F800310446AEE7124B0C4A01241C606E
S214072840D2F8003143F08073C2F800310320A2E7C4
S214072850002004249FE70724A1E700231C46B5E7CA
S214072860024B00221A67F8BD88400E4000400E4013
S21407287080400E4084400E4010000020002D31019D
S2140728800048E8014000C8430090D003C800C6438C
S21407289000250A0000300E4000000E4038B50446FA
S2140728A01120FFF76BFC012200210220FFF712FE22
S2140728B0174A257C536A1749207823F00103022D0F
S2140728C008BF43F0010353620860A388617AE5886E
S2140728D041EAC321D162136B207AA17A03F07F63A2
S2140728E00B43C11C43EAC5230F2943EAC01328BF7D
S2140728F00F2143EA01731363A37B657BE07B217B90
S2140729001B0143EA0533034343EA0143536338BDD8
S21407291000400E40A004C843EFF3108072B670471D
S21407292000B962B6704700BFEFF3108072B6704703
S214072930FFF7F6BF42EA032340F2011293425BD049
S214072940B3F5817F14D340F2012293424BD030D99E
S214072950B3F5407F24D040F2013293423ED12B4B51
S214072960D3F878311A0EC3F3074303600A6070473B
S214072970012B2AD00BD3B3F5807F2FD1234BD3F867
S2140729806C311A0EC3F3074303600A6070471F4B88
S214072990D3F86C31C3F30722DBB203600A607047D3
S2140729A01A4BD3F870311A0EC3F3074303600A6055
S2140729B07047B3F5007F11D1144BD3F87031C3F3CA
S2140729C00722DBB203600A607047104BD3F87431F6
S2140729D0C3F30722DBB203600A6070470022134680
S2140729E003600A607047094BD3F87831C3F30722B0
S2140729F0DBB203600A607047044BD3F874311A0ED3
S214072A00C3F3074303600A60704700BFB081E00F57
S214072A10154B0228D3F8803122D003281ED0012870
S214072A2014BFDBB2C3F307231B0323F4704241B979
S214072A3092B90E49CA6E22F470421343CB66012040
S214072A4070474AB90949D1F8E02022F47042134387
S214072A50C1F8E03001207047002070471B0EE3E7FF
S214072A60C3F30743E0E700BFB081E00F00300E4036
S214072A701A4B2DE9F041D3F8003104460E46FDF710
S214072A807FFF174A07461368002BFCD1DFF85480F0
S214072A90D8F80430C3F301439C420ED0C4F10203B6
S214072AA01025022C05FA03F50FD0C8F810501EB1F2
S214072AB00B4A1368002BFCD10CB1BDE8F081214608
S214072AC03846BDE8F041FFF701BB21463846FFF719
S214072AD0FDFAC8F81050002EEFD0E9E700400E4088
S214072AE0C800C64300300E4010B5104B82B0D3F86E
S214072AF0004158B10E4B1B7813B10E4B98420ED9B6
S214072B00002002B0BDE81040FFF7B2BF0191FDF705
S214072B1037FFC4F3042404FB00000199EAE7022008
S214072B2002B0BDE81040FFF7A3BF00BF00400E404D
S214072B3008060020FF2C3101034B02781A7001218A
S214072B400020FFF7D1BF00BF0806002006494278DD
S214072B500B6823F4407343EA0223022A0B6004BF80
S214072B60024B5B6A704700BF00300E4000400E40C5
S214072B701E4A936FDB07FCD4136C13F003031CD0B9
S214072B801B4A0121834211601CD0032B02D1431E2E
S214072B90012B18D9154A936FD907FCD4136C134920
S214072BA023F00303034313648B6FDB07FCD4003067
S214072BB00F4B18BF0120186070470028E7D10C4B51
S214072BC0186070477047094A4FF40023D362936F23
S214072BD0D907FCD4136C054923F0030343F001031C
S214072BE013644B6A1B03FCD5D4E700BF00300E40C6
S214072BF0B40AC6432DE9F04FA0F5E16489B0002377
S214072C00B4F5966FCDE90233CDE90433CDE9063343
S214072C1070D8514BB0F5E16FD3F868318CBF4FF0E1
S214072C20010A4FF0000A69D1C3F30724DBB2079401
S214072C3004934FF4167B4FF49665DFF820910191C5
S214072C40D9F84C60C6F30176044605A902A83346B0
S214072C5090465246FFF76EFED9F8E070C7F3012795
S214072C6052463B4606A903A8FFF764FE049A07994F
S214072C70651B8B1A05FB03F3B3FBFBF3D3182CBFBB
S214072C8001220022994235D3002A33D106990398A8
S214072C900A1A05FB02F2B2FBFBF210EB020A2CBF84
S214072CA001220022514525D322BB0299059A501AC4
S214072CB005FB00F5B5FBFBFB11EB0B0B2CBF01214E
S214072CC000215A4516D3A9B9B8F1000F0ED0D9F886
S214072CD05C2022F4FE4222F0020242EA0323B4F505
S214072CE0E16F1E4A18BF43F00203D365019B7BB909
S214072CF0012000E0002009B0BDE8F08F1C0EC3F3EA
S214072D000743079404934FF4966B4FF4E16594E7F3
S214072D1030460021FFF77CFE0028EBD0384601211D
S214072D20FFF776FE0028E5D00C4A536ED34538BF2A
S214072D30D34623F4FF73BBF1E70F23F0010328BF45
S214072D404FF0E70BB4F5E16F18BF43F0010343EA12
S214072D504B035366CFE700BFB081E00F00300E404D
S214072D603A4B1A6FD96CC90730B402F007020BD575
S214072D70012A57D9132852D9143813288CBF4FF471
S214072D807F424FF4EE4207E0D96CCD073BD4012AC9
S214072D9051D9DB6C6FF0FF022C482D4DC36C2D4CC0
S214072DA023F47F431343C364C16C2B88C26CC1F3FF
S214072DB003210131283301EB810503EB5303B3FBF2
S214072DC0F5F3013B072B22F0EE6228BF072342F4F8
S214072DD0801242EA0363B4F90020C364002A10DBBA
S214072DE0036D4C08283204EB410102EB520223F034
S214072DF07004B2FBF1F3072B28BF072344EA03133B
S214072E00036530BC7047DB6CDC0711D5012A0FD889
S214072E1027288CBF4FF47F424FF4EE42BCE74FF4AF
S214072E204C52B9E7DA6CD10705D5DB6CDB07EFD474
S214072E306FF0FF02B0E70928F1D90A3809288CBFD6
S214072E404FF47F424FF4EE42A6E700BF00300E4035
S214072E500406002006060020C2884A2AF8B504465B
S214072E60B0F90C7005D9B2F5FA7F53D24FF08050FF
S214072E7000E000203349344ECB6C344D23F04053EA
S214072E8023F00103002FA8BF43F001030343CB64DD
S214072E90D1F8E030288843F44073C1F8E030CB6EB1
S214072EA043F08073CB663368002B3CD133680B6FD7
S214072EB023F007030B67FFF753FF254B2549A08829
S214072EC02689B4F90C201A8028800E80FFF748FF61
S214072ED0A37B002B31D0012B18D001221146608826
S214072EE0FFF788FE054678B1164A6078D36B43F439
S214072EF08063D363FFF73CFEA37A174AA3F1200348
S214072F00B3FA83F35B0913602846F8BD0D4B134AE3
S214072F109A65E2E740F6C3139A428CBF4FF04050DB
S214072F204FF00050A6E733680B6F23F0070343F014
S214072F3004030B67FFF714FFBFE7024B084A9A65BF
S214072F40CBE700BF00300E408009C64302060020CC
S214072F5006060020040600209407C643372110B74C
S214072F6077402057F0B444004AB12718214D3F0157
S214072F7001263D448E40A3B305F1C0652E60251893
S214072F802D0105F18045072905F5204519D88F003D
S214072F906E684FF00F0C0CFA07FC26EA0C0602FACE
S214072FA007F73E436E6052B90444124A24010120D3
S214072FB0224400FA01F1C3B902F180621160F0BC45
S214072FC0704701F18046083EAF68B6004FF00F0C19
S214072FD00CFA06FC27EA0C0702FA06F63E43AE6032
S214072FE0E1E705F180652E60C9E702F1C062F0BC33
S214072FF0116070470CA0004038B5044601211148FF
S214073000FFF772F8B4F8013020780F4A0F495BBA19
S2140730109BB243EA0063002013604FF0004510623E
S2140730204FF0FF33D06250634FF40070D566936657
S214073030C1F88001E3785B01DBB281F809330860E9
S21407304038BD00BF00550A0000200E4000E100E032
S214073050F8B5CB7A8E7A0D7B234F1B050C4643EAD1
S214073060064300EB400607EB061643EA4553C0B295
S2140730700125497B22F0030285402068C6F88000B8
S214073080C6F88810C6F88430C6F89820BD66FFF7DD
S2140730904BFCFB6E227A2B43FB6612B17B6B2B43F2
S2140730A07B63637A1BB1104AD36A2B43D3620E4BFA
S2140730B022791B6822B1D243120262F47F42134080
S2140730C062790AB143EA0223A2790AB123EA020324
S2140730D0E27902B11343044A044913600D60D563CD
S2140730E0BDE8F840FFF724BC00200E4028200E4419
S2140730F010B5C0B201248440FFF716FC054A0649FE
S214073100D36E23EA0403D3660C60BDE81040FFF7CE
S2140731100FBC00BF00200E4020200E44F8B5C3B2F7
S21407312001259D400446FFF7FFFB0B4B04EB4404C9
S2140731301F6E9E6A03EB0414D4F88C40FFF7F8FB67
S214073140354206D1C4F30A1008B93D4200D1013012
S214073150F8BD0020F8BD00BF00200E40054A064B0C
S2140731605168526841F671321A649A6822F0010271
S2140731709A60704700300E4000000E40034B9A6876
S214073180002122F001029A601964704700000E4081
S21407319030B48B784C780A78CD789B0143EA840361
S2140731A013430C794A79897943EA051343EAC4231A
S2140731B0043043EA02330001024A43EA414313500C
S2140731C030BC704700200440437941780278F0B459
S2140731D00479C7798678C5781B0343EA0423002950
S2140731E043EA02030CBF002104218479027A002EE9
S2140731F043EA074343EA01030CBF00211021002DD1
S21407320043EA01030CBF00212021002C43EA0103F7
S2140732100CBF00214FF400410B430AB143F40033BF
S214073220014AF0BC1360704700200440F8B5054615
S21407323016461C46E9B1202C21D022D9402C16D0A0
S214073240602C13D104222B68104F23F060032B60E9
S21407325006FB02F62B68720802EB4112B2FBF6F287
S214073260203A07EAC2021C432C606A61F8BD0622B0
S214073270E9E70748FFF72EF8202C0146DDD108229C
S214073280E1E7002CF2D11022DDE700BFF8FF7F0050
S21407329040410500CB435B0003F00A03C360C160EF
S2140732A0704700BF2B4A70B5044600232A4840F6ED
S2140732B0AA660D46944241F20501E6602360616006
S2140732C0A3606361E364A06423666367A367E36739
S2140732D03DD002F58062944235D002F58062944272
S2140732E035D0A365AB7C1BB1236843F080432360CE
S2140732F0EB7C1BB12B7D43F08003A365697B2E8A8D
S214073300E8892B7BAA6831430143616020466968D8
S214073310FFF78CFF6B7D1BB1236843F48033236074
S214073320AB7DEA7D29781B07120503F0E04302F41C
S214073330E00213432366636F23F030036367636F0C
S2140733406367E16070BD2365A365E365CAE700238D
S2140733502365C6E700000140F9FF0100344A70B54F
S21407336004460023334840F6AA660D46944241F2C7
S2140733700501E66023606160A3606361E364A0649F
S21407338023666367A367E3674AD002F580629442C1
S21407339042D002F58062944242D0A3652A8AA87B6F
S2140733A02368297D42F00102002843EA02030CBF86
S2140733B000224FF4806213432360236809B143F069
S2140733C00053AA7C23601AB1EB7C43F08003A36505
S2140733D02B7BD5E9010643F48053636018B36B7BF8
S2140733E001387600B0FBF6F0000260610BB11023DF
S2140733F0E3606B7D1BB1236843F480332360AB7DAA
S214073400EA7D29781B07120503F0E04302F4E00281
S21407341013432366E16070BD2365A365E365BDE7D7
S21407342000232365B9E70448FEF754FFD7E700BF34
S21407343000000140F9FF01004041050003691B0633
S214073440FCD5C069C0B2704703695B06FCD541630B
S214073450704700BF704708B500F03AF80128FBD15F
S21407346008BD10B50C4600F01EF81CB1BDE81040AC
S214073470FFF7F1BF10BD000008B528B9034B196068
S214073480034B1868FFF7E6FF08BD00BF30000020B3
S2140734900C060020024B1B6803B11847704700BF95
S2140734A0100600207047032811D8DFE800F00E0248
S2140734B0070A00221146012000F0A0BE00220121C3
S2140734C0F9E7012211461046F6E70022FAE77047A9
S2140734D00F4B5B68C3F30363013B0B2B0DD8DFE889
S2140734E003F014140614141414080A080808032012
S2140734F070470420704705207047064BDB6813F0BB
S214073500060F14BF0420012070470220704700BF33
S2140735100040084000500840094A13884FF6FF71DC
S2140735208B4210B509D00748074C046000F10070BD
S2140735301B0403601180002010BD0320FCE700BFBA
S2140735401C0600205C6008440000FFFF0000000027
S2140735505D4B2DE9F3471C6881468A46154604B13C
S2140735600C3457A1D1E9000100EA090201EA0A036F
S214073570134367D009F48010002150EA0102534B29
S21407358018BF534AD3F81C3118BF136009F400104C
S214073590002150EA01021CBF4E4A136009F0005290
S2140735A00023134309D04C4B1B6803F07F43B3F14A
S2140735B0007F02BF494B02221A6009F0010200236E
S2140735C0134330D04FF000080022002300210120CB
S2140735D0CDE9008800F074FC012000F04DFB414661
S2140735E0E0800120FFF73DFF3D4BD3F888305A02B5
S2140735F008D4A36913F0800F14BF3A4A3A4A4FF427
S21407360000131360394B1A683AB139496FF0FF0057
S214073610086001F1007102400A6000221A602378F0
S21407362043F01003237000220AF00803134309D05F
S2140736300121204600F06AF82AF0080749EA00093F
S21407364047EA010AD4E9222309EA02000AEA030143
S21407365002460B46134306460F461CD0254BA4F1DD
S2140736600C0019683B468847194A4FF0FF3313602A
S214073670184A136006F00802002313431EBF1E4BAA
S21407368000221A601D4A002316401F4056EA070309
S21407369001D0FFF741FFEB070DD51949194A08680E
S2140736A0136800211160184A012111701BB102B07E
S2140736B0BDE8F047184702B0BDE8F087AFF30080D3
S2140736C001003020080000000C06002000500840CB
S2140736D03C00002038000020FC1E00210040084661
S2140736E0004008401860084618600844180600207E
S2140736F01870084434000020140600200000F02F3D
S21407370024060020200600201E06002038B50546A1
S2140737100C46FFF701F969692B690C4023432B61B7
S214073720FFF7FEF800200CB9002138BD0821FCE79A
S2140737300A4B0B494FF48032C3F8E8200A609A6BAD
S214073740D1B2C2F3072299679A6704229A670022C2
S2140737509A679A679A679A679A6770470010084049
S214073760EC10084600EB40002DE9F84F040104F181
S2140737708044042A04F5012406D8013A032A2DD8E2
S214073780DFE802F044413E3B0B78A3614B78A36128
S2140737908B78A361CB78A3612768D4F80880D4F820
S2140737A004A007F00707BB1D01279F4007F1FF3955
S2140737B009EA0800161FA7EB000B5E4501F1040592
S2140737C04AF0005A0CD829465044324601F08AFA85
S2140737D006EB080249EA07073A40A260BDE8F88FF9
S2140737E05A462946504401F07DFA05EB0B01A6EB35
S2140737F00B02504601F076FAEAE70B78A36101312F
S2140738000B78A36101310B78A36101310B78A361B3
S214073810BDE8F88F3023584300F1804000F50120BB
S214073820006AC0F30C007047402910B50A464FF0EF
S21407383001030BD8064C0146C4F8B8300320FFF73F
S21407384091FF0423C4F8B830002010BD1846FCE7E3
S2140738500010084010B5FFF75FF81C4B1C491D4CBD
S21407386001229A65C3F888200A604C6007244C62D8
S21407387019490C80194C002121804FF4A024C3F865
S214073880E84003F1C063EC331C60154B1960154B19
S214073890D3F888305C0212D5134B14491B684FF4D3
S2140738A080040C607BB1596A090608D493F84C303B
S2140738B00F494FF400140C600BB10E4B1A60BDE8AD
S2140738C01040FFF72DB89B69FFDE00BF00100840C9
S2140738D06010084028060020AA060020A806002038
S2140738E0AC060020004008400C060020884008442C
S2140738F018600844F86008462DE9F041044698B178
S214073900434EFFF709F83188424BDFF82CC101F028
S2140739107F0202F07807022C05461F4464D1DCF8C4
S214073920004024B9FEF7FCFF0320BDE8F08124F031
S2140739300104DCF8000020F00100A04258D1002363
S214073940CCF8003023886FEA43436FEA5343BC4200
S21407395023803DD1304ADFF8E4C01388ACF18008F5
S214073960CF18083B9BB204F10801F81A614528BF37
S2140739704146082B80B204D9B1F900E0BEF1000F2A
S21407398041DB13802288A178244CC2F30C02E26341
S21407399001F00701C2B2224832800429C26043629E
S2140739A016D1204B204AD3F88830204B1B684FF49B
S2140739B0800111604BB35A6A120609D493F84C304B
S2140739C01B4A4FF40011116013B11A4B01221A60FB
S2140739D0124BD3F8E030DB0301D5FFF7A9FE2846E4
S2140739E0FEF79EFF0020A0E7012C08BF3C46A0E795
S2140739F0A21AD31A084A128848BF8033083A9A424E
S214073A00A0DC28468EE70C46ABE79B69FFDE00BFC7
S214073A10A806002028060020AA0600200010084056
S214073A206010084000400840884008440C06002004
S214073A3018600844F8600846AC060020A806002070
S214073A400D480E4A038812880D491A44073A02F0B1
S214073A5078020A4408339BB203809078094900F03D
S214073A60070004284B6203D107494B681B03FCD4A5
S214073A70064B1A60704700BFAA060020A80600205B
S214073A80280600206010084000400840AC060020CA
S214073A9010B5054C206828B1C30701D4FFF72CFFE3
S214073AA00023236010BD00BFAC060020094B4FF46F
S214073AB080321A60084BC3F8E420D3F88020C2F39C
S214073AC00C02782A05D8D3F8E030DB0301D5FFF7D8
S214073AD02FBE7047EC1008440010084008B500F0E9
S214073AE005F90D4A68B1D2F8003123F47F115B0857
S214073AF003F4FE130B43C2F800314FF00073D36193
S214073B0008BDD2F8183123F47F115B0803F4FE13BF
S214073B100B43C2F81831F0E7004008407047000032
S214073B2008B500F0E3F84FF4001330B1044A136009
S214073B30044B4FF000621A6008BD034AF7E700BF60
S214073B40004108442040084418410844054B020138
S214073B50134401221A604FF4807303FA00F0024BF5
S214073B605866704700510844005008401030034B11
S214073B700001185800F00100704700BF00500840C9
S214073B80014B024ADA667047005008400000010100
S214073B9070B50546FEF7C8FE084A094B9E691478B5
S214073BA0084A1268E4B20AB19E69013404F00304B5
S214073BB0FEF7BEFEC5E90046284670BDB8060020DB
S214073BC000500840880B0A4308B5222000F03AF850
S214073BD0024B4FF480225A6008BD00BF00500840D1
S214073BE013B502AB03E90300084B01991868009B5D
S214073BF0484300EB8370064B1C684FF000420023D7
S214073C00E1FB0423184402B010BD00BFB406002031
S214073C10B006002013B56C462046FFF7B9FF94E8B8
S214073C20030002B0BDE81040FFF7DABF38B5044618
S214073C30FFF7F0FF0546FFF7EDFF401BA042FAD35C
S214073C4038BD0000044BD3F89430002BBCBF034BA1
S214073C50C3F88000704700BF0040084000000840D7
S214073C60044B5868C0F30360023801288CBF002055
S214073C7001207047004008402DE9F041144FDFF857
S214073C8058800646FEF748FE0246FFF7E9FFBB6880
S214073C909B09C3F309049B0548BF44EA0804054685
S214073CA0FFF7DEFF24B20028104608BF0025FEF700
S214073CB037FE14F5007F05D10DB1002EE2D1204660
S214073CC0BDE8F081034B002D08BF1C46F7E700BF91
S214073CD00070084000FEFFFF00FCFFFF024B59691B
S214073CE09A680A401A61704700400440034BD3F8AD
S214073CF0380180F01000C0F30010704700400840FD
S214073D0010B5046884EA010323EA020200F180631F
S214073D1014401C6040F8042C00F1C0600A400260A2
S214073D2010BD00002DE90048FEF7F6FD134B197885
S214073D30E9B9134BD3E900234FF0000C02F4105BEC
S214073D405BEA0C0313D10F4B10221A600C4BD3E916
S214073D5000234FF0000C02F4807B5BEA0C030BD1C8
S214073D60084B20221A60BDE80048FEF7D9BD064B6F
S214073D7010221A600029E9D0034BF2E7C906002093
S214073D80C00600209440084494400846044B00228E
S214073D901A70044B197811B11A70FFF7C3BF704732
S214073DA0CA060020C906002008B5FEF7B5FD0A4B6F
S214073DB05B68C3F30363032B06D1084A136823F033
S214073DC0F00343F0E0031360054B40F201225A620A
S214073DD0BDE80840FEF7A4BD00400840501F00217C
S214073DE00000084008B5FEF797FD234B4FF08052BA
S214073DF0C3F88020BFF34F8FBFF36F8F4FF48072E7
S214073E00C3F88020BFF34F8FBFF36F8F0222C3F82C
S214073E108020BFF34F8FBFF36F8F1022C3F8802029
S214073E20BFF34F8FBFF36F8F2022C3F88020BFF3F7
S214073E304F8FBFF36F8F4FF00052C3F88020BFF34A
S214073E404F8FBFF36F8F8022C3F88020BFF34F8F4B
S214073E50BFF36F8F4022C3F88020BFF34F8FBFF3A7
S214073E606F8F0122C3F88420BFF34F8FBFF36F8F86
S214073E70BDE80840FEF754BD00E100E00D4B1B7897
S214073E802DE930489BB10120FFF7C4FC044670B902
S214073E90FFF77CFF084B094DD3E900BC22460123F8
S214073EA00BF4805000212B70FFF752FB2C70BDE8F7
S214073EB0308800BFCA060020C0060020C8060020BB
S214073EC02DE9F84F0A9E0B9F8046894602EA000AAC
S214073ED003EA010B3740002E3ED1002908BF012810
S214073EE01ED0C0F03181002908BF04284ED1FEF746
S214073EF013FD9649D1E9002322F0040444EA0A0296
S214073F0043EA0B03C1E900235AEA0B0314BF904A9E
S214073F10904A4FF480631360BDE8F84FFEF700BD84
S214073F20FEF7FAFC8949D1E9002322F0010443EAA7
S214073F300B0344EA0A02C1E900235AEA0B03864A3E
S214073F404FF0010304D0936302F1C0623C32E2E70C
S214073F5082490B609363DFE758EA090316D1012EFF
S214073F6014D1FEF7D9FC7E4A136823F001033B43BE
S214073F7013604FF480637B4A27B1536602F1C06231
S214073F806832C8E778490B605366C5E7FFF72AFF2C
S214073F906E4BD3E9004525EA090224EA080142EAFE
S214073FA00B096F4A41EA0A08C3E90089136823EA3E
S214073FB006063E431660FFF7B5FE08F02A620023A2
S214073FC0134348F2020108BF4FF40041B20748BF47
S214073FD041F4005100226548FFF792FE08F40042BC
S214073FE00023134308F480324FF0000314BF4FF446
S214073FF080510021134308F010024FF0000318BF4A
S21407400041F48071134308F020024FF0000318BFF5
S21407401041F40051134308F040024FF0000318BF65
S21407402041F4007113434FF0000308F0800218BFF5
S21407403041F48061134318BF41F4006100224C48E5
S214074040FFF75EFE002209F00803134308F4006238
S2140740504FF0000314BF4FF480210021134308F4E8
S21407406080424FF0000318BF41F48031134308F035
S21407407002024FF0000318BF41F48011134308F4FF
S21407408080224FF0000318BF41F4800113434FF01E
S214074090000308F4003218BF41F40021134318BF89
S2140740A041F40011730748BF41F00401012231486B
S2140740B0FFF726FE304B3149314816F0010F18BF7F
S2140740C0194608F08042002313434FF0000308F018
S2140740D0004218BF41F40011134318BF41F00071A6
S2140740E00022FFF70DFE002208F001012548FFF722
S2140740F007FE08F4002200231343234B23492448D2
S21407410008F004044FF0000518BF194654EA0503E3
S2140741104FF4A02218BF41F48061FFF7F1FDFEF7C8
S214074120FBFB1C4B4FF080521A604FF480721A60EC
S21407413010221A6020221A604FF000521A6080225E
S2140741401A6040221A60E7E6BDE8F88FC00600202E
S214074150EC100846EC100844007008403C70084411
S214074160BC06002000500840685008446C00084011
S2140741700C62084020400840041C500004185000F9
S214074180685008403C7008400D0A0A09090A0A09DF
S214074190EC10084000E100E0F8B5094D094E0A4F5B
S2140741A0D5F8882004243460D5F888305B0300D41B
S2140741B0F8BD3C600220FFF739FD3460F4E700BF26
S2140741C000400840884008468840084438B50546F9
S2140741D0FEF7A2FB0446FFF73DFB35B1FFF7D6FD1A
S2140741E02046BDE83840FEF79BBB034B1B78002BE9
S2140741F0F6D1FFF743FEF3E7C80600202DE9F047A0
S21407420080460E461546FEF787FB07463EB34749E8
S2140742100A46D1F8703103F00F03032B01D0092BA0
S21407422006D1D2F88C30DB03F3D4536F0C2BF0D9BE
S214074230FFF7B2FF3E4B3D4901221A6003F17E436A
S2140742407C3304221A604A6812F0706FFBD14FF471
S21407425040121A60374A136823F0F0031360364C8F
S214074260FFF75AF9A02323600320FFF77FFC28B146
S2140742700320FFF76BFC0420FFF768FCFFF780FCC2
S2140742802E4BDFF8A8A000221A67FFF785FF2C4AF7
S214074290136843F0200313602A4BFF221A604FF07F
S2140742A004094FF48073CAF80830C4F80090B8F1D0
S2140742B0000F09D0FFF778FDFFF786FC2023CAF822
S2140742C008304846FFF742FC56B32846FFF77EFFFE
S2140742D01D4B5B681D4B01221A600DB31C4BDA6E33
S2140742E09A6603F580431A6ADA6103F50053D3F832
S2140742F00C22C3F80822A3F54053DA6F9A67A3F592
S2140743000053D3F8EC20C3F8E82003F5C043DA6B74
S2140743109A63A3F500530F4A5A664FF47C4323600B
S2140743203846BDE8F047FEF7FBBA00BF0040084036
S2140743300C400846501F002188400844005008409B
S214074340E01E002100400844B081E00F0C400844FE
S214074350000008405000F0027A4B2DE9F74F1E6E1A
S214074360DA6E16409E6603F58053D3F8E070D3F8EE
S214074370EC201740C3F8E87003F5A043D3F8001203
S214074380D3F80C2201EA020BC3F808B2A3F50053D0
S21407439059691A6A01EA02084FEA18421204DA61F2
S2140743A0694BD3F80022940006D4D3F80031C3F340
S2140743B04073002B00F0A680FEF7AEFA634BDA6870
S2140743C0D96D12F0060F9A6E01EA020929F48002E7
S2140743D014BF4FF0010A4FF0000A22F4006219F0EA
S2140743E0040F5A6604D05A4A13780133DBB21370A7
S2140743F0FEF796FA002E00F09F80300440F1858085
S214074400544B5549D3F88830A02003F4E0520A608D
S2140744100860102041F8880C002A78D0D90479D48F
S2140744205A057AD44FF08074B3074FF000050AD5C3
S214074430484B4949D3F8883003F460420A60002A9B
S2140744406ED144F4001416F4005618BF0226434BE8
S2140744503B40BBB317F4206F08D00020FFF7B6FE2B
S2140744600621002027F48027FFF706F817F0090F24
S2140744700AD0384B20229A60A3F5405301229A624D
S21407448008210020FEF7F8FF17F0106F0AD0314B0F
S2140744900021202208469A60FFF7C6F90921002066
S2140744A0FEF7EAFF17F4202F08D00020FFF78EFE4E
S2140744B00721002027F48027FEF7DEFFFA0301D541
S2140744C0FFF7F4FA7B0708D5254B1A684FF4005315
S2140744D0AAB3244A44F400241360780548BF44F07E
S2140744E0040417F4802745D0FFF7AAFA01380628F0
S2140744F03CD8DFE810F0F500F800F500FB00FE00FA
S214074500010101019A46994674E700248CE74FF4A7
S214074510801489E74FF0806486E74FF4800483E7CA
S214074520180402D544F000648DE799044CBF44F4A0
S214074530000444F0007486E70024002587E70A4A4B
S2140745401360CAE70000084000E100E0005008409A
S214074550B80600200040084088400844090A0B09AE
S214074560B4040243241008442410084603210020FC
S214074570FEF782FFBBF1000F1DD01BF4805F18BF4C
S21407458044F400441BF4807F18BF44F480341BF4C3
S214074590005F18BF44F010041BF4007F18BF44F0F8
S2140745A020041BF4806F18BF44F040041BF4006F10
S2140745B018BF44F08004B8F1000F40D018F0007F11
S2140745C018BF46F0080618F0806F18BF46F01006AA
S2140745D018F0006F18BF46F0200618F4802F18BF93
S2140745E045F0080518F4803F18BF44F4006418F433
S2140745F0801F18BF44F4804418F4800F18BF44F097
S214074600020418F4001F18BF44F4003418F4002FEF
S21407461015D0934B1B6859060FD4924B5A68C2F3B2
S2140746200362032A01D0072A09D1D3F88C20D206C1
S21407463005D4D3F890301B0701D444F48024B9F18D
S214074640000F00F0848019F4006F19D08649874A56
S21407465091F803B0BBF1000F53D04FF400630BF192
S214074660FF3B53665FFA8BF3CB704BB9804B1978D9
S21407467040F60143002942D002F1C0626C32136053
S21407468019F0007F04D02B20FFF7DCFA44F0004433
S21407469019F4E00F06D119F4805F4CD0BAF1000F79
S2140746A000F0978019F4001F04D02920FFF7CAFAF4
S2140746B044F0804419F4800F32D00420FFF746FAFE
S2140746C02720FFF7BFFA6B4BA0221A60102243F889
S2140746D0882C664B4FF480025A6644F000542AE052
S2140746E044F4005446E744F4806443E744F4007413
S2140746F040E744F480743DE744F008043AE713675C
S214074700BEE703200192FFF721FA5B4B019A41F6B9
S2140747101F7119604FF400635366C2F870B0AFE7B5
S21407472019F4801F41D00420FFF710FA2820FFF75E
S21407473089FA44F0805419F4806F08D04A4A93786F
S214074740002B00F08480013B937000231E434B4BE5
S214074750DFF84C91D3E900AB494B1A680AEA040024
S214074760012332400BEA050189F80030FEF7F0FE18
S214074770002389F800301FB1FFF78AF9FFF77EFBA1
S214074780B8F1000F68D018F0007F01D0FFF7A6F940
S21407479018F0806F01D0FFF7C1F918F0006F5BD0F3
S2140747A003B0BDE8F04FFFF7BBB919F4805FC2D07E
S2140747B00420FFF7CBF9FFF707FA2C4BDB6D13F452
S2140747C0A00FB8D12A20FFF73DFA2E4B01229A6296
S2140747D083E7254A137963B1013BDBB2137123B133
S2140747E00022002314431D43A5E7274B274A1A60D8
S2140747F0F6E70420FFF7AAF90320FFF7A7F9FFF764
S214074800BFF9FEF789F8224B1B7883460BB1FFF7F3
S214074810CBFA0120FEF7FEFF124B5B68C3F3036378
S214074820032B00D028B11B4B1A781B4B4FF0010AFD
S2140748301A705846FEF774F8BAF1000FD0D1174B26
S21407484083F800A0FFF76EFA4FF48052C9E70220FC
S214074850FFF77CF9012379E703B0BDE8F08F00BFC7
S214074860E01E0021004008404C170020005008407A
S214074870CB060020884008446C500844C006002039
S214074880BC060020001008406C5008460000010DCA
S214074890CC060020CD060020CA060020C906002048
S2140748A0C8060020FFF758BDFFF756BDFFF754BDF3
S2140748B0FFF752BD024A01231360024AD3617047CD
S2140748C020400844004008400E4B10B55C691A6A41
S2140748D01440A2B2DA61E20704D55868C0F3036051
S2140748E0FFF7E8FF63070CD5074B084C1A6800204C
S2140748F0012302F0040200212370FEF729FE00239D
S214074900237010BD00400840BC060020C8060020E3
S214074910FFF722BD0C4A136BD16B0B4010B59363A0
S214074920DB0710D5094B0A4C1878122100F0010056
S214074930FEF7A2FD01230022012000212370FEF7C7
S21407494007FE0023237010BD00700840C006002035
S214074950C8060020024B1A6FD96F0A409A6770473D
S2140749600030084053B94AB9002908BF00281CBFC1
S2140749704FF0FF314FF0FF3000F072B9ADF1080C81
S2140749806DE904CE00F006F8DDF804E0DDE9022361
S21407499004B070472DE9F047089E04468846002B6A
S2140749A04BD18A42154667D9B2FA82F24AB1C2F1AA
S2140749B0200701FA02F320FA07F7954047EA0308AB
S2140749C094404FEA154E230CB8FBFEF71FFA85FCFA
S2140749D00EFB178843EA084307FB0CF1994209D9EF
S2140749E0EB1807F1FF3080F01B81994240F21881DF
S2140749F0023F2B445B1AA4B2B3FBFEF00EFB103348
S214074A0044EA034400FB0CFCA44509D92C1900F121
S214074A10FF3380F00781A44540F2048102382C4416
S214074A2040EA0740A4EB0C0400271EB1D44000233D
S214074A30C6E900433946BDE8F0878B4209D9002E00
S214074A4000F0EB800027C6E9000138463946BDE886
S214074A50F087B3FA83F7002F47D18B4202D38242FF
S214074A6000F2FA80841A61EB030301209846002EB1
S214074A70E0D0C6E90048DDE702B9FFDEB2FA82F207
S214074A80002A40F08F80491B4FEA154E1FFA85F81B
S214074A900127B1FBFEFC230C0EFB1C1143EA014366
S214074AA008FB0CF1994207D9EB180CF1FF3002D23C
S214074AB0994200F2CD808446591AA3B2B1FBFEF0A4
S214074AC00EFB101443EA044408FB00F8A04507D978
S214074AD02C1900F1FF3302D2A04500F2B680184623
S214074AE0A4EB080440EA0C409FE7C7F1200CBB4044
S214074AF022FA0CFE4EEA030E01FA07F420FA0CF52A
S214074B0021FA0CF34FEA1E482543B3FBF8F92C0CA1
S214074B1008FB19331FFA8EFA44EA034309FB0AF423
S214074B209C4202FA07F200FA07F10BD91EEB0303C1
S214074B3009F1FF3080F087809C4240F28480A9F11B
S214074B40020973441B1BADB2B3FBF8F008FB103326
S214074B5045EA034400FB0AFAA24508D91EEB0404FB
S214074B6000F1FF336BD2A24569D90238744440EA94
S214074B700940A0FB0289A4EB0A044C45C2464B46F3
S214074B8054D351D0002E69D0B1EB0A0564EB030469
S214074B9004FA0CFCFD40FC404CEA0505C6E9005447
S214074BA0002747E7C2F1200320FA03F7954001FAEA
S214074BB002F021FA03F34FEA154E3843010CB3FB14
S214074BC0FEF71FFA85F80EFB173341EA034107FB8A
S214074BD008F38B4204FA02F407D9691807F1FF3C79
S214074BE02FD28B422DD9023F2944CB1A81B2B3FB71
S214074BF0FEF00EFB103341EA034100FB08F38B423D
S214074C0007D9691800F1FF3C17D28B4215D902382D
S214074C102944C91A40EA07473BE73746304609E7BB
S214074C200746E7E61846FBE64145ABD2B8EB020A6D
S214074C3069EB0E0201381346A4E76046E9E7184613
S214074C4095E76746D1E781467CE702382C4447E775
S214074C50ACF1020C2B442FE7384608E73746E9E65F
S214074C60704700BF08B5074B044613B10021AFF3E2
S214074C700080054B1868836A03B198472046FBF700
S214074C8045FD00BF000000000460070070B50D4E2C
S214074C900D4CA41BA4100025A54209D10B4E0C4CA5
S214074CA001F078F8A41BA4100025A54205D170BD15
S214074CB056F8253098470135EEE756F825309847D9
S214074CC00135F2E7900300209003002090030020B0
S214074CD094030020024B0146186800F065B800BF31
S214074CE04000002010B5431E0A44914200D110BD73
S214074CF011F8014B03F8014FF7E7024403469342C6
S214074D0000D1704703F8011BF9E7000038B50546E0
S214074D10002945D051F8043C0C1F002BB8BFE418F7
S214074D2000F074FC1F4A1368104633B963601460BA
S214074D302846BDE8384000F06ABCA3420CD9216873
S214074D406218934204BF1A685B68636004BF521810
S214074D5022600460ECE713465A680AB1A242FAD901
S214074D6019685818A0420BD1206801445818824287
S214074D701960DDD1106852685A6001441960D7E798
S214074D8002D90C232B60D3E7206821188A4204BF78
S214074D9011685268626004BF091821605C60C7E743
S214074DA038BD00BFD006002070B5CD1C25F0030522
S214074DB008350C2D38BF0C25002D064601DBA94209
S214074DC003D90C233360002070BD00F01FFC214A76
S214074DD01468214691B9204C23681BB9304600F069
S214074DE0B9F820602946304600F0B4F8431C24D1B1
S214074DF00C233360304600F00AFCE4E70B685B1BC5
S214074E0018D40B2B0FD90B60CD50CC18304600F0BA
S214074E10FEFB04F10B00231D20F00700C31AD3D0B6
S214074E205A42E250D0E78C424B6816BF6360136065
S214074E300C46EBE70C464968CCE7C41C24F0030491
S214074E40A04205D0211A304600F084F80130CFD0B2
S214074E502560DBE7D0060020D40600200FB40A4BF7
S214074E6013B51C6824B1A36913B9204600F0E0FA0D
S214074E7005AB049AA1680193204600F0F3FB02B045
S214074E80BDE8104004B070474000002070B50E46DD
S214074E90054618B183690BB900F0CAFAAB69AC6866
S214074EA013B9284600F0C4FA234B9C4217D16C6806
S214074EB0A3891B071DD52369DBB1013EA36816F836
S214074EC0011F013BA360E9B9002B2EDA22460A210F
S214074ED0284600F0FDF8013011D00A2011E0174BE4
S214074EE09C4201D1AC68E3E7154B9C4208BFEC68CF
S214074EF0DEE72146284600F03DF90028DDD04FF0D2
S214074F00FF3070BD002B04DAA2699A4206DC0A2934
S214074F1004D023685A1C22601970CFE72246284619
S214074F2000F0D6F80130C9D1E9E723680A205A1CF1
S214074F3022601870E5E700BF286007004860070092
S214074F4008600700024B01461868FFF79FBF00BFBF
S214074F504000002038B5064C002305460846236067
S214074F60FBF7F6FB431C02D1236803B12B6038BD61
S214074F70541700202DE9F7431D46514B1E6804467B
S214074F800F46904626B1B36913B9304600F050FA7B
S214074F904C4B9C4252D17468B8F1020F06D0B8F158
S214074FA0010F00F28980002DC0F286802146304628
S214074FB000F0D4F9616B41B104F14403994202D081
S214074FC03046FFF7A3FE002363630023A3616360F5
S214074FD0A3891B0603D521693046FFF797FEA389E9
S214074FE023F44A6323F00303B8F1020FA3815DD0CD
S214074FF001AB6A462146304600F0A4FAA389184357
S214075000A0812DBB009D2846FFF764FE07460028B3
S2140750104ED1DDF80090A9453CD14FF0FF30A3896B
S21407502043F00203A3810023A36004F14703236030
S21407503023610123636103B0BDE8F083224B9C42E2
S21407504001D1B468A8E7214B9C4208BFF468A3E7E0
S214075050002FD8D0B36913B9304600F0E9F9B8F194
S214075060010F08BFA389276004BF43F00103A3818C
S214075070A38913F00800C4E904751BD013F00100D8
S21407508018BF6D424FF000031DBFA360A561184609
S214075090A560D0E74846FFF71DFE07460028BCD0A8
S2140750A0A38943F08003A3814D46D3E70020B6E7E4
S2140750B0A946F5E7A060BEE74FF0FF30BBE700BFA5
S2140750C040000020286007004860070008600700C7
S2140750D0F8B50E461446054618B183690BB900F0B5
S2140750E0A7F9214B9C422AD16C68A369A360A389C0
S2140750F01A072ED5236963B323692068C01A636924
S214075100F6B28342374604DC2146284600F026F9E5
S21407511028BBA368013BA36023685A1C22601E7045
S21407512063690130834204D0A389DB0719D50A2EA9
S21407513017D12146284600F011F990B10FE00B4B26
S2140751409C4201D1AC68D0E7094B9C4208BFEC688B
S214075150CBE72146284600F00DF80028CCD04FF0C4
S214075160FF373846F8BD00BF2860070048600700CD
S21407517008600700324B70B51D6806460C4625B119
S214075180AB6913B9284600F053F92E4B9C420FD152
S2140751906C68B4F90C309AB215072CD4D00611D423
S2140751A00922326043F04003A3814FF0FF303EE010
S2140751B0254B9C4201D1AC68EBE7244B9C4208BFC9
S2140751C0EC68E6E7510712D5616B41B104F1440379
S2140751D0994202D03046FFF799FD00236363A389FF
S2140751E023F02403A3810023636023692360A38934
S2140751F043F00803A38123694BB9A38903F42073FB
S214075200B3F5007F03D02146304600F0BFF9A289E8
S21407521012F001030CD00023A36063695B42A3610D
S214075220236953B9B4F90C3013F08000BAD170BDB6
S214075230920758BF6369A360F2E70020F7E700BF4D
S2140752404000002028600700486007000860070045
S2140752508A892DE9F041054610070C4658D44B6855
S214075260002B05DC0B6C002B02DC0020BDE8F08170
S214075270E66A002EF9D0002312F480522F68216ABE
S2140752802B6032D0606DA3895A0705D56368C01AAC
S214075290636B0BB1236CC01A00230246E66A216AC9
S2140752A02846B047431CA38906D129681D2948D834
S2140752B0294ACA40D60744D500226260D904226923
S2140752C0226004D5421C01D12B6803B96065616B67
S2140752D02F600029C9D004F14403994202D028461A
S2140752E0FFF714FD00206063C0E701232846B04798
S2140752F0411CC8D12B68002BC5D01D2B01D0162BFF
S21407530001D12F60B1E7A38943F04003A381ADE73E
S2140753100F69002FA9D093070E6808BF4B690F6067
S21407532018BF0023A6EB07088B60B8F1000F9CDDBB
S21407533043463A46216AA66A2846B047002806DC4E
S214075340A38943F04003A3814FF0FF308EE707445D
S214075350A8EB0008E9E700BF0100402038B50B6955
S21407536005460C46DBB118B183690BB900F060F847
S2140753700C4B9C4209D16C68B4F90C307BB12146C2
S2140753802846BDE83840FFF763BF074B9C4201D16C
S214075390AC68F1E7054B9C4208BFEC68ECE70020D9
S2140753A038BD00BF28600700486007000860070090
S2140753B0002310B50446C0E9003383608181436645
S2140753C0C281C0E904338361194608225C30FFF7BF
S2140753D094FC054B6362054BA362054BE362054BE2
S2140753E02462236310BD00BF9D5B0700BF5B0700F9
S2140753F0F75B07001B5C0700014900F085B800BF94
S2140754005D53070070B54A1E682555430E4605F1DD
S2140754107401FFF7C9FC044640B10021C0E9001635
S2140754200C30A06005F16802FFF767FC204670BDE8
S214075430836910B5044633BBC0E912330365124BC4
S214075440124A1B688262984204BF0123836100F0F8
S2140754501FF86060204600F01BF8A060204600F0AA
S21407546017F80022E06004216068FFF7A1FF012219
S2140754700921A068FFF79CFF02221221E068FFF7C8
S21407548097FF0123A36110BD04600700F9530700C7
S214075490F8B51B4B1E68B369074613B93046FFF7C6
S2140754A0C7FF4836D6E90134013B03D5336833B125
S2140754B03668F7E7B4F90C506DB16834F4E70421A1
S2140754C03846FFF79FFF30600028F1D10C233B607A
S2140754D004462046F8BD0B4B6566C4E90055A56033
S2140754E0C4E90335C4E905550822294604F15C00DA
S2140754F0FFF703FCC4E90D55C4E91255E9E700BFF9
S214075500046007000100FFFF2DE9F843804689463F
S21407551000F14804002614B93046BDE8F883D4E9FC
S2140755200175013F01D52468F5E7AB89012B07D93B
S214075530B5F90E30013303D029464046C84706431F
S2140755406835EEE770B50E46B1F90E10002996B02D
S21407555014461D4607DA00232B60B3891A0610D4B3
S2140755604FF480630EE06A4600F07EFB0028F2DB0D
S214075570019A02F47042A2F500535A425A412A6031
S214075580EEE740230020236016B070BD8B8973B505
S2140755909D0706460C4607D504F14703236023619B
S2140755A00123636102B070BD01AB6A46FFF7CAFF0D
S2140755B0009905463046FFF7F7FB48B9B4F90C30B3
S2140755C09A05EFD423F0030343F00203A381E3E72E
S2140755D00D4BB362A389206043F08003A381009B31
S2140755E06361019B20615BB1B4F90E10304600F091
S2140755F04DFB28B1A38923F0030343F00103A381DE
S214075600A3891D43A581CDE7F95307007047704767
S2140756109368013B002B10B4936008DA9469A342A1
S21407562001DB0A2903D15DF8044BFFF751BD136868
S214075630581C1060197008465DF8044B7047F8B59B
S21407564006460F461446D518AC4201D1002007E09F
S2140756503A4614F8011B3046FFF7DAFF431CF3D12E
S214075660F8BD00002DE9F04F9DB00C461746039392
S214075670064618B183690BB9FFF7DAFE7B4B9C42E7
S21407568057D17468A38918075DD52369002B5AD0AC
S2140756900023099320238DF8293030238DF82A30EC
S2140756A04FF0010BB846454615F8013B0BB1252BC5
S2140756B054D1B8EB070A0BD053463A462146304634
S2140756C0FFF7BDFF013000F0C280099B53440993E2
S2140756D098F80030002B00F0BA8000234FF0FF3216
S2140756E0CDE90523049307938DF853301A93A846FC
S2140756F0052218F8011B5E4800F0EAFA049B78BBFF
S214075700D90644BF20228DF853201A0744BF2B2200
S2140757108DF853202A782A2A2AD0079AA8460020E6
S2140757200A25414611F8013B303B092B69D960B37E
S21407573024E0504B9C4201D1B468A3E74E4B9C42F1
S21407574008BFF4689EE721463046FFF713FD00289A
S2140757509ED04FF0FF301DB0BDE8F08FA846A2E7F9
S214075760434A801A0BFA00F0184304904546BEE7F2
S214075770039A111D12680391002A01DB079204E0C1
S214075780524243F002030792049398F800302E2BF8
S2140757900ED198F801302A2B38D1039B1A1D1B68A7
S2140757A00392002BB8BF4FF0FF3308F102080593AA
S2140757B0324D98F800100322284600F089FA40B1C7
S2140757C04023401B03FA00F0049B034308F101083B
S2140757D0049398F800102A488DF82810062208F136
S2140757E0010700F075FA002837D0264B1BBB039B32
S2140757F0073323F0070308330393099B4B440993A6
S21407580050E705FB0232012088468AE7002308F1A5
S2140758100108059319460A25404610F8012B303A29
S214075820092A03D9002BC3D00591C1E705FB01213F
S21407583001238046F0E703AB00932246124B04A9E8
S2140758403046AFF30080B0F1FF3F8146D5D1A3893C
S2140758505B063FF57EAF09987DE703AB00932246CC
S214075860094B04A9304600F087F8ECE728600700E4
S2140758706860070048600700086007006E6007005A
S21407588072600700000000003F5607002DE9F0474A
S21407589091461F468A680B69DDF820809342B8BF99
S2140758A01346C9F8003091F8432006460C4612B155
S2140758B00133C9F800302368990642BFD9F800308B
